{
  "address": "0xcF178777C112C2364A43E160D38694446CdE37e9",
  "abi": [
    {
      "inputs": [],
      "name": "MESSAGE_DATA_LENGTH",
      "outputs": [
        {
          "internalType": "uint8",
          "name": "",
          "type": "uint8"
        }
      ],
      "stateMutability": "view",
      "type": "function"
    },
    {
      "inputs": [
        {
          "internalType": "address",
          "name": "_verifier",
          "type": "address"
        },
        {
          "internalType": "address",
          "name": "_vkRegistry",
          "type": "address"
        },
        {
          "internalType": "address",
          "name": "_poll",
          "type": "address"
        },
        {
          "internalType": "address",
          "name": "_owner",
          "type": "address"
        }
      ],
      "name": "deploy",
      "outputs": [
        {
          "internalType": "address",
          "name": "messageProcessorAddr",
          "type": "address"
        }
      ],
      "stateMutability": "nonpayable",
      "type": "function"
    }
  ],
  "transactionHash": "0x175ffd53b33abac664eca60318dfc931f22f8e19c584fd4b36f62450fce380a0",
  "args": [],
  "numDeployments": 1,
  "solcInputHash": "7461aa873cfc3f45ef4ea80bd8190233",
  "bytecode": "0x608060405234801561001057600080fd5b50612146806100206000396000f3fe608060405234801561001057600080fd5b50600436106100365760003560e01c8063683f3dc31461003b578063fd82b73a1461005a575b600080fd5b610043600a81565b60405160ff90911681526020015b60405180910390f35b61006d610068366004610166565b610085565b6040516001600160a01b039091168152602001610051565b6000808585856040516100979061013d565b6001600160a01b03938416815291831660208301529091166040820152606001604051809103906000f0801580156100d3573d6000803e3d6000fd5b5060405163f2fde38b60e01b81526001600160a01b0385811660048301529192509082169063f2fde38b90602401600060405180830381600087803b15801561011b57600080fd5b505af115801561012f573d6000803e3d6000fd5b509298975050505050505050565b611f56806101bb83390190565b80356001600160a01b038116811461016157600080fd5b919050565b6000806000806080858703121561017c57600080fd5b6101858561014a565b93506101936020860161014a565b92506101a16040860161014a565b91506101af6060860161014a565b90509295919450925056fe60e060405260405162001f5638038062001f568339810160408190526200002691620000bc565b62000031336200004f565b6001600160a01b0392831660a05290821660c0521660805262000106565b600080546001600160a01b038381166001600160a01b0319831681178455604051919092169283917f8be0079c531659141344cd1fd0a4f28419497f9722a3daafe3b4186f6b6457e09190a35050565b80516001600160a01b0381168114620000b757600080fd5b919050565b600080600060608486031215620000d257600080fd5b620000dd846200009f565b9250620000ed602085016200009f565b9150620000fd604085016200009f565b90509250925092565b60805160a05160c051611dc5620001916000396000818161015101526110350152600081816101900152611168015260008181610267015281816102e30152818161037b015281816106dc0152818161072d015281816107d10152818161086d0152818161099101528181610a1e01528181610b3301528181610f120152610f990152611dc56000f3fe608060405234801561001057600080fd5b50600436106101215760003560e01c80637a38d18f116100ad578063b1a263d311610071578063b1a263d314610289578063bea140b31461029c578063d13181b8146102af578063d1849f48146102b8578063f2fde38b146102cb57600080fd5b80637a38d18f146102115780638763d0c41461021a5780638da5cb5b1461023e5780639cfced971461024f578063a11752791461026257600080fd5b80633dfb88b2116100f45780633dfb88b2146101bb57806358bfc379146101ce5780635bb93995146101e157806362a361bb146101f4578063715018a61461020757600080fd5b80630cd3b91d1461012657806313fb89321461014c5780632b7ac3f31461018b5780633d6528a1146101b2575b600080fd5b610139610134366004611248565b6102de565b6040519081526020015b60405180910390f35b6101737f000000000000000000000000000000000000000000000000000000000000000081565b6040516001600160a01b039091168152602001610143565b6101737f000000000000000000000000000000000000000000000000000000000000000081565b61013960025481565b6101396101c936600461134e565b610507565b6101396101dc3660046113f0565b610588565b6101396101ef366004611486565b610622565b6101396102023660046114a8565b610647565b61020f610681565b005b61013960015481565b60005461022e90600160a01b900460ff1681565b6040519015158152602001610143565b6000546001600160a01b0316610173565b61013961025d366004611508565b610695565b6101737f000000000000000000000000000000000000000000000000000000000000000081565b61020f610297366004611543565b6106cf565b6101396102aa3660046115cf565b610c0b565b61013960035481565b6101396102c6366004611628565b610c45565b61020f6102d9366004611693565b610d46565b6000807f00000000000000000000000000000000000000000000000000000000000000006001600160a01b0316638aa0ba926040518163ffffffff1660e01b8152600401602060405180830381865afa15801561033f573d6000803e3d6000fd5b505050506040513d601f19601f8201168201806040525081019061036391906116b7565b905060006103748b8a8a8888610c45565b90506000807f00000000000000000000000000000000000000000000000000000000000000006001600160a01b0316634909229f6040518163ffffffff1660e01b81526004016040805180830381865afa1580156103d6573d6000803e3d6000fd5b505050506040513d601f19601f820116820180604052508101906103fa91906116d0565b60408051600680825260e08201909252929450909250600091906020820160c0803683370190505090508381600081518110610438576104386116f4565b6020026020010181815250508481600181518110610458576104586116f4565b6020026020010181815250508c81600281518110610478576104786116f4565b6020026020010181815250508981600381518110610498576104986116f4565b60200260200101818152505088816004815181106104b8576104b86116f4565b60209081029190910101526104cd8284611720565b816005815181106104e0576104e06116f4565b6020026020010181815250506104f581610588565b9e9d5050505050505050505050505050565b60405163248f667760e01b8152600090739dE016B7bbbE32cb5E18163530b87F810e76483C9063248f667790610541908590600401611733565b602060405180830381865af415801561055e573d6000803e3d6000fd5b505050506040513d601f19601f8201168201806040525081019061058291906116b7565b92915050565b60007f30644e72e131a029b85045b68181585d2833e84879b9709143e1f593f00000016002836040516020016105be9190611764565b60408051601f19818403018152908290526105d89161179a565b602060405180830381855afa1580156105f5573d6000803e3d6000fd5b5050506040513d601f19601f8201168201806040525081019061061891906116b7565b61058291906117c9565b600061062c61121b565b8381526020810183905261063f81610647565b949350505050565b6040516314d2f97b60e11b815260009073f2e06d2452A0d124AF0F6b8e63662131729E7F0A906329a5f2f6906105419085906004016117eb565b610689610dc4565b6106936000610e1e565b565b604051630926f44b60e31b81526000907308979464144853c9a97a98a624597C4698acda8e90634937a25890610541908590600401611813565b6106d7610dc4565b6107007f0000000000000000000000000000000000000000000000000000000000000000610e6e565b600054600160a01b900460ff161561072b5760405163a7f0397560e01b815260040160405180910390fd5b7f00000000000000000000000000000000000000000000000000000000000000006001600160a01b031663b5f38c816040518163ffffffff1660e01b8152600401602060405180830381865afa158015610789573d6000803e3d6000fd5b505050506040513d601f19601f820116820180604052508101906107ad919061183b565b6107ca57604051631bb80bef60e31b815260040160405180910390fd5b60008060007f00000000000000000000000000000000000000000000000000000000000000006001600160a01b031663ac98e5df6040518163ffffffff1660e01b8152600401608060405180830381865afa15801561082d573d6000803e3d6000fd5b505050506040513d601f19601f82011682018060405250810190610851919061185d565b93509350935050600083600561086791906119a0565b905060007f00000000000000000000000000000000000000000000000000000000000000006001600160a01b031663bc14ee2b6040518163ffffffff1660e01b8152600401606060405180830381865afa1580156108c9573d6000803e3d6000fd5b505050506040513d601f19601f820116820180604052508101906108ed91906119af565b50604051631b9b8aa760e01b815260ff87166004820152909250600091506001600160a01b03831690631b9b8aa790602401602060405180830381865afa15801561093c573d6000803e3d6000fd5b505050506040513d601f19601f8201168201806040525081019061096091906116b7565b9050806000036109835760405163c0b868a560e01b815260040160405180910390fd5b600154600003610afb5760007f00000000000000000000000000000000000000000000000000000000000000006001600160a01b031663c17268d96040518163ffffffff1660e01b8152600401602060405180830381865afa1580156109ed573d6000803e3d6000fd5b505050506040513d601f19601f82011682018060405250810190610a1191906116b7565b90508060038190555060007f00000000000000000000000000000000000000000000000000000000000000006001600160a01b0316634f367f0f6040518163ffffffff1660e01b81526004016040805180830381865afa158015610a79573d6000803e3d6000fd5b505050506040513d601f19601f82011682018060405250810190610a9d91906116d0565b915060009050610aad86836117c9565b600283905590508115610af75780600003610adf578560026000828254610ad491906119fc565b90915550610af79050565b8060026000828254610af191906119fc565b90915550505b5050505b610b0f600254826003548b8a8a8a8e610f0b565b610b2f5760405160016268f24f60e01b0319815260040160405180910390fd5b60007f00000000000000000000000000000000000000000000000000000000000000006001600160a01b0316634f367f0f6040518163ffffffff1660e01b81526004016040805180830381865afa158015610b8e573d6000803e3d6000fd5b505050506040513d601f19601f82011682018060405250810190610bb291906116d0565b91505060006002541115610bd8578360026000828254610bd291906119fc565b90915550505b610c00896002546001546001610bee9190611720565b610bf89088611a0f565b8411156111e2565b505050505050505050565b6040516304b98e1d60e31b8152600090736397684f16b6bCe2f47D9C5d51DbE45c8d570937906325cc70e890610541908590600401611a26565b600080610c538360056119a0565b90506000610c628560056119a0565b90506000610c70828a611720565b905086811115610c7d5750855b600160321b8310610ca15760405163df0dbdbd60e01b815260040160405180910390fd5b600160321b8810610cc557604051631805864f60e21b815260040160405180910390fd5b600160321b8910610ce9576040516328b2660560e21b815260040160405180910390fd5b600160321b8110610d0d576040516309c5b7c360e21b815260040160405180910390fd5b609681901b60648a901b610d2560328b901b86611720565b610d2f9190611720565b610d399190611720565b9998505050505050505050565b610d4e610dc4565b6001600160a01b038116610db85760405162461bcd60e51b815260206004820152602660248201527f4f776e61626c653a206e6577206f776e657220697320746865207a65726f206160448201526564647265737360d01b60648201526084015b60405180910390fd5b610dc181610e1e565b50565b6000546001600160a01b031633146106935760405162461bcd60e51b815260206004820181905260248201527f4f776e61626c653a2063616c6c6572206973206e6f7420746865206f776e65726044820152606401610daf565b600080546001600160a01b038381166001600160a01b0319831681178455604051919092169283917f8be0079c531659141344cd1fd0a4f28419497f9722a3daafe3b4186f6b6457e09190a35050565b600080826001600160a01b0316634909229f6040518163ffffffff1660e01b81526004016040805180830381865afa158015610eae573d6000803e3d6000fd5b505050506040513d601f19601f82011682018060405250810190610ed291906116d0565b90925090506000610ee383426119fc565b9050818111610f0557604051635c3017c560e11b815260040160405180910390fd5b50505050565b60008060007f00000000000000000000000000000000000000000000000000000000000000006001600160a01b0316634f367f0f6040518163ffffffff1660e01b81526004016040805180830381865afa158015610f6d573d6000803e3d6000fd5b505050506040513d601f19601f82011682018060405250810190610f9191906116d0565b9150915060007f00000000000000000000000000000000000000000000000000000000000000006001600160a01b031663bc14ee2b6040518163ffffffff1660e01b8152600401606060405180830381865afa158015610ff5573d6000803e3d6000fd5b505050506040513d601f19601f8201168201806040525081019061101991906119af565b50509050600061102f8d8d86868f8f8f8e6102de565b905060007f00000000000000000000000000000000000000000000000000000000000000006001600160a01b0316630bfbd4fe846001600160a01b031663652c76e46040518163ffffffff1660e01b8152600401602060405180830381865afa1580156110a0573d6000803e3d6000fd5b505050506040513d601f19601f820116820180604052508101906110c49190611a4e565b8b8b6110d18f60056119a0565b6040516001600160e01b031960e087901b16815260ff94851660048201529284166024840152921660448201526064810191909152608401600060405180830381865afa158015611126573d6000803e3d6000fd5b505050506040513d6000823e601f3d908101601f1916820160405261114e9190810190611b20565b6040516308adcb2560e21b81529091506001600160a01b037f000000000000000000000000000000000000000000000000000000000000000016906322b72c94906111a1908a9085908790600401611c7e565b602060405180830381865afa1580156111be573d6000803e3d6000fd5b505050506040513d601f19601f820116820180604052508101906104f5919061183b565b60038390556000805460ff60a01b1916600160a01b831515021781556002839055600180549161121183611d76565b9190505550505050565b60405180604001604052806002906020820280368337509192915050565b60ff81168114610dc157600080fd5b600080600080600080600080610100898b03121561126557600080fd5b883597506020890135965060408901359550606089013594506080890135935060a0890135925060c089013561129a81611239565b915060e08901356112aa81611239565b809150509295985092959890939650565b634e487b7160e01b600052604160045260246000fd5b6040805190810167ffffffffffffffff811182821017156112f4576112f46112bb565b60405290565b60405160a0810167ffffffffffffffff811182821017156112f4576112f46112bb565b604051601f8201601f1916810167ffffffffffffffff81118282101715611346576113466112bb565b604052919050565b60006080828403121561136057600080fd5b82601f83011261136f57600080fd5b6040516080810181811067ffffffffffffffff82111715611392576113926112bb565b6040528060808401858111156113a757600080fd5b845b818110156113c15780358352602092830192016113a9565b509195945050505050565b600067ffffffffffffffff8211156113e6576113e66112bb565b5060051b60200190565b6000602080838503121561140357600080fd5b823567ffffffffffffffff81111561141a57600080fd5b8301601f8101851361142b57600080fd5b803561143e611439826113cc565b61131d565b81815260059190911b8201830190838101908783111561145d57600080fd5b928401925b8284101561147b57833582529284019290840190611462565b979650505050505050565b6000806040838503121561149957600080fd5b50508035926020909101359150565b6000604082840312156114ba57600080fd5b82601f8301126114c957600080fd5b6114d16112d1565b8060408401858111156114e357600080fd5b845b818110156114fd5780358452602093840193016114e5565b509095945050505050565b600060a0828403121561151a57600080fd5b82601f83011261152957600080fd5b6115316112fa565b8060a08401858111156114e357600080fd5b60008061012080848603121561155857600080fd5b83359250602085603f86011261156d57600080fd5b604051610100810181811067ffffffffffffffff82111715611591576115916112bb565b6040529185019180878411156115a657600080fd5b8287015b848110156115c157803582529083019083016115aa565b509497909650945050505050565b6000606082840312156115e157600080fd5b82601f8301126115f057600080fd5b6040516060810181811067ffffffffffffffff82111715611613576116136112bb565b6040528060608401858111156113a757600080fd5b600080600080600060a0868803121561164057600080fd5b853594506020860135935060408601359250606086013561166081611239565b9150608086013561167081611239565b809150509295509295909350565b6001600160a01b0381168114610dc157600080fd5b6000602082840312156116a557600080fd5b81356116b08161167e565b9392505050565b6000602082840312156116c957600080fd5b5051919050565b600080604083850312156116e357600080fd5b505080516020909101519092909150565b634e487b7160e01b600052603260045260246000fd5b634e487b7160e01b600052601160045260246000fd5b808201808211156105825761058261170a565b60808101818360005b600481101561175b57815183526020928301929091019060010161173c565b50505092915050565b815160009082906020808601845b8381101561178e57815185529382019390820190600101611772565b50929695505050505050565b6000825160005b818110156117bb57602081860181015185830152016117a1565b506000920191825250919050565b6000826117e657634e487b7160e01b600052601260045260246000fd5b500690565b60408101818360005b600281101561175b5781518352602092830192909101906001016117f4565b60a08101818360005b600581101561175b57815183526020928301929091019060010161181c565b60006020828403121561184d57600080fd5b815180151581146116b057600080fd5b6000806000806080858703121561187357600080fd5b845161187e81611239565b602086015190945061188f81611239565b60408601519093506118a081611239565b60608601519092506118b181611239565b939692955090935050565b600181815b808511156118f75781600019048211156118dd576118dd61170a565b808516156118ea57918102915b93841c93908002906118c1565b509250929050565b60008261190e57506001610582565b8161191b57506000610582565b8160018114611931576002811461193b57611957565b6001915050610582565b60ff84111561194c5761194c61170a565b50506001821b610582565b5060208310610133831016604e8410600b841016171561197a575081810a610582565b61198483836118bc565b80600019048211156119985761199861170a565b029392505050565b60006116b060ff8416836118ff565b6000806000606084860312156119c457600080fd5b83516119cf8161167e565b60208501519093506119e08161167e565b60408501519092506119f18161167e565b809150509250925092565b818103818111156105825761058261170a565b80820281158282048414176105825761058261170a565b60608101818360005b600381101561175b578151835260209283019290910190600101611a2f565b600060208284031215611a6057600080fd5b81516116b081611239565b600060408284031215611a7d57600080fd5b611a856112d1565b9050815181526020820151602082015292915050565b600082601f830112611aac57600080fd5b611ab46112d1565b806040840185811115611ac657600080fd5b845b818110156114fd578051845260209384019301611ac8565b600060808284031215611af257600080fd5b611afa6112d1565b9050611b068383611a9b565b8152611b158360408401611a9b565b602082015292915050565b60006020808385031215611b3357600080fd5b825167ffffffffffffffff80821115611b4b57600080fd5b908401906101e08287031215611b6057600080fd5b611b686112fa565b611b728784611a6b565b81526040611b8288828601611ae0565b85830152611b938860c08601611ae0565b81830152611ba5886101408601611ae0565b60608301526101c084015183811115611bbd57600080fd5b80850194505087601f850112611bd257600080fd5b83519250611be2611439846113cc565b83815260069390931b84018501928581019089851115611c0157600080fd5b948601945b84861015611c2757611c188a87611a6b565b82529482019490860190611c06565b60808401525090979650505050505050565b8060005b6002811015610f05578151845260209384019390910190600101611c3d565b611c67828251611c39565b6020810151611c796040840182611c39565b505050565b60006101408286835b6008811015611ca6578151835260209283019290910190600101611c87565b505050806101008401526103208301611ccc828501875180518252602090810151910152565b6020915081860151611ce2610180860182611c5c565b50604080870151611cf7610200870182611c5c565b506060870151611d0b610280870182611c5c565b5060808701516101e06103008701528051928390528301916000906103408701905b80831015611d5e57611d4a82865180518252602090810151910152565b938501936001929092019190830190611d2d565b50809550505050505082610120830152949350505050565b600060018201611d8857611d8861170a565b506001019056fea26469706673582212203d484bb3159812241b769a1c73f9528ac5b0316535971098d0407a3630bbc0dc64736f6c63430008130033a2646970667358221220842048697e5d0a23207108340edd3f28c5f83818a0e9fb87b8ce0ddd815c64f764736f6c63430008130033",
  "deployedBytecode": "0x608060405234801561001057600080fd5b50600436106100365760003560e01c8063683f3dc31461003b578063fd82b73a1461005a575b600080fd5b610043600a81565b60405160ff90911681526020015b60405180910390f35b61006d610068366004610166565b610085565b6040516001600160a01b039091168152602001610051565b6000808585856040516100979061013d565b6001600160a01b03938416815291831660208301529091166040820152606001604051809103906000f0801580156100d3573d6000803e3d6000fd5b5060405163f2fde38b60e01b81526001600160a01b0385811660048301529192509082169063f2fde38b90602401600060405180830381600087803b15801561011b57600080fd5b505af115801561012f573d6000803e3d6000fd5b509298975050505050505050565b611f56806101bb83390190565b80356001600160a01b038116811461016157600080fd5b919050565b6000806000806080858703121561017c57600080fd5b6101858561014a565b93506101936020860161014a565b92506101a16040860161014a565b91506101af6060860161014a565b90509295919450925056fe60e060405260405162001f5638038062001f568339810160408190526200002691620000bc565b62000031336200004f565b6001600160a01b0392831660a05290821660c0521660805262000106565b600080546001600160a01b038381166001600160a01b0319831681178455604051919092169283917f8be0079c531659141344cd1fd0a4f28419497f9722a3daafe3b4186f6b6457e09190a35050565b80516001600160a01b0381168114620000b757600080fd5b919050565b600080600060608486031215620000d257600080fd5b620000dd846200009f565b9250620000ed602085016200009f565b9150620000fd604085016200009f565b90509250925092565b60805160a05160c051611dc5620001916000396000818161015101526110350152600081816101900152611168015260008181610267015281816102e30152818161037b015281816106dc0152818161072d015281816107d10152818161086d0152818161099101528181610a1e01528181610b3301528181610f120152610f990152611dc56000f3fe608060405234801561001057600080fd5b50600436106101215760003560e01c80637a38d18f116100ad578063b1a263d311610071578063b1a263d314610289578063bea140b31461029c578063d13181b8146102af578063d1849f48146102b8578063f2fde38b146102cb57600080fd5b80637a38d18f146102115780638763d0c41461021a5780638da5cb5b1461023e5780639cfced971461024f578063a11752791461026257600080fd5b80633dfb88b2116100f45780633dfb88b2146101bb57806358bfc379146101ce5780635bb93995146101e157806362a361bb146101f4578063715018a61461020757600080fd5b80630cd3b91d1461012657806313fb89321461014c5780632b7ac3f31461018b5780633d6528a1146101b2575b600080fd5b610139610134366004611248565b6102de565b6040519081526020015b60405180910390f35b6101737f000000000000000000000000000000000000000000000000000000000000000081565b6040516001600160a01b039091168152602001610143565b6101737f000000000000000000000000000000000000000000000000000000000000000081565b61013960025481565b6101396101c936600461134e565b610507565b6101396101dc3660046113f0565b610588565b6101396101ef366004611486565b610622565b6101396102023660046114a8565b610647565b61020f610681565b005b61013960015481565b60005461022e90600160a01b900460ff1681565b6040519015158152602001610143565b6000546001600160a01b0316610173565b61013961025d366004611508565b610695565b6101737f000000000000000000000000000000000000000000000000000000000000000081565b61020f610297366004611543565b6106cf565b6101396102aa3660046115cf565b610c0b565b61013960035481565b6101396102c6366004611628565b610c45565b61020f6102d9366004611693565b610d46565b6000807f00000000000000000000000000000000000000000000000000000000000000006001600160a01b0316638aa0ba926040518163ffffffff1660e01b8152600401602060405180830381865afa15801561033f573d6000803e3d6000fd5b505050506040513d601f19601f8201168201806040525081019061036391906116b7565b905060006103748b8a8a8888610c45565b90506000807f00000000000000000000000000000000000000000000000000000000000000006001600160a01b0316634909229f6040518163ffffffff1660e01b81526004016040805180830381865afa1580156103d6573d6000803e3d6000fd5b505050506040513d601f19601f820116820180604052508101906103fa91906116d0565b60408051600680825260e08201909252929450909250600091906020820160c0803683370190505090508381600081518110610438576104386116f4565b6020026020010181815250508481600181518110610458576104586116f4565b6020026020010181815250508c81600281518110610478576104786116f4565b6020026020010181815250508981600381518110610498576104986116f4565b60200260200101818152505088816004815181106104b8576104b86116f4565b60209081029190910101526104cd8284611720565b816005815181106104e0576104e06116f4565b6020026020010181815250506104f581610588565b9e9d5050505050505050505050505050565b60405163248f667760e01b815260009073__$e61c65d9562aef5fa6ab22c0f787cf1e30$__9063248f667790610541908590600401611733565b602060405180830381865af415801561055e573d6000803e3d6000fd5b505050506040513d601f19601f8201168201806040525081019061058291906116b7565b92915050565b60007f30644e72e131a029b85045b68181585d2833e84879b9709143e1f593f00000016002836040516020016105be9190611764565b60408051601f19818403018152908290526105d89161179a565b602060405180830381855afa1580156105f5573d6000803e3d6000fd5b5050506040513d601f19601f8201168201806040525081019061061891906116b7565b61058291906117c9565b600061062c61121b565b8381526020810183905261063f81610647565b949350505050565b6040516314d2f97b60e11b815260009073__$1540826e134b1b69b7091c82576ee3aadd$__906329a5f2f6906105419085906004016117eb565b610689610dc4565b6106936000610e1e565b565b604051630926f44b60e31b815260009073__$46fbdf6658faf65265971bdad66851b86c$__90634937a25890610541908590600401611813565b6106d7610dc4565b6107007f0000000000000000000000000000000000000000000000000000000000000000610e6e565b600054600160a01b900460ff161561072b5760405163a7f0397560e01b815260040160405180910390fd5b7f00000000000000000000000000000000000000000000000000000000000000006001600160a01b031663b5f38c816040518163ffffffff1660e01b8152600401602060405180830381865afa158015610789573d6000803e3d6000fd5b505050506040513d601f19601f820116820180604052508101906107ad919061183b565b6107ca57604051631bb80bef60e31b815260040160405180910390fd5b60008060007f00000000000000000000000000000000000000000000000000000000000000006001600160a01b031663ac98e5df6040518163ffffffff1660e01b8152600401608060405180830381865afa15801561082d573d6000803e3d6000fd5b505050506040513d601f19601f82011682018060405250810190610851919061185d565b93509350935050600083600561086791906119a0565b905060007f00000000000000000000000000000000000000000000000000000000000000006001600160a01b031663bc14ee2b6040518163ffffffff1660e01b8152600401606060405180830381865afa1580156108c9573d6000803e3d6000fd5b505050506040513d601f19601f820116820180604052508101906108ed91906119af565b50604051631b9b8aa760e01b815260ff87166004820152909250600091506001600160a01b03831690631b9b8aa790602401602060405180830381865afa15801561093c573d6000803e3d6000fd5b505050506040513d601f19601f8201168201806040525081019061096091906116b7565b9050806000036109835760405163c0b868a560e01b815260040160405180910390fd5b600154600003610afb5760007f00000000000000000000000000000000000000000000000000000000000000006001600160a01b031663c17268d96040518163ffffffff1660e01b8152600401602060405180830381865afa1580156109ed573d6000803e3d6000fd5b505050506040513d601f19601f82011682018060405250810190610a1191906116b7565b90508060038190555060007f00000000000000000000000000000000000000000000000000000000000000006001600160a01b0316634f367f0f6040518163ffffffff1660e01b81526004016040805180830381865afa158015610a79573d6000803e3d6000fd5b505050506040513d601f19601f82011682018060405250810190610a9d91906116d0565b915060009050610aad86836117c9565b600283905590508115610af75780600003610adf578560026000828254610ad491906119fc565b90915550610af79050565b8060026000828254610af191906119fc565b90915550505b5050505b610b0f600254826003548b8a8a8a8e610f0b565b610b2f5760405160016268f24f60e01b0319815260040160405180910390fd5b60007f00000000000000000000000000000000000000000000000000000000000000006001600160a01b0316634f367f0f6040518163ffffffff1660e01b81526004016040805180830381865afa158015610b8e573d6000803e3d6000fd5b505050506040513d601f19601f82011682018060405250810190610bb291906116d0565b91505060006002541115610bd8578360026000828254610bd291906119fc565b90915550505b610c00896002546001546001610bee9190611720565b610bf89088611a0f565b8411156111e2565b505050505050505050565b6040516304b98e1d60e31b815260009073__$fa059fb1da6d850ca47ea49359bfe89f78$__906325cc70e890610541908590600401611a26565b600080610c538360056119a0565b90506000610c628560056119a0565b90506000610c70828a611720565b905086811115610c7d5750855b600160321b8310610ca15760405163df0dbdbd60e01b815260040160405180910390fd5b600160321b8810610cc557604051631805864f60e21b815260040160405180910390fd5b600160321b8910610ce9576040516328b2660560e21b815260040160405180910390fd5b600160321b8110610d0d576040516309c5b7c360e21b815260040160405180910390fd5b609681901b60648a901b610d2560328b901b86611720565b610d2f9190611720565b610d399190611720565b9998505050505050505050565b610d4e610dc4565b6001600160a01b038116610db85760405162461bcd60e51b815260206004820152602660248201527f4f776e61626c653a206e6577206f776e657220697320746865207a65726f206160448201526564647265737360d01b60648201526084015b60405180910390fd5b610dc181610e1e565b50565b6000546001600160a01b031633146106935760405162461bcd60e51b815260206004820181905260248201527f4f776e61626c653a2063616c6c6572206973206e6f7420746865206f776e65726044820152606401610daf565b600080546001600160a01b038381166001600160a01b0319831681178455604051919092169283917f8be0079c531659141344cd1fd0a4f28419497f9722a3daafe3b4186f6b6457e09190a35050565b600080826001600160a01b0316634909229f6040518163ffffffff1660e01b81526004016040805180830381865afa158015610eae573d6000803e3d6000fd5b505050506040513d601f19601f82011682018060405250810190610ed291906116d0565b90925090506000610ee383426119fc565b9050818111610f0557604051635c3017c560e11b815260040160405180910390fd5b50505050565b60008060007f00000000000000000000000000000000000000000000000000000000000000006001600160a01b0316634f367f0f6040518163ffffffff1660e01b81526004016040805180830381865afa158015610f6d573d6000803e3d6000fd5b505050506040513d601f19601f82011682018060405250810190610f9191906116d0565b9150915060007f00000000000000000000000000000000000000000000000000000000000000006001600160a01b031663bc14ee2b6040518163ffffffff1660e01b8152600401606060405180830381865afa158015610ff5573d6000803e3d6000fd5b505050506040513d601f19601f8201168201806040525081019061101991906119af565b50509050600061102f8d8d86868f8f8f8e6102de565b905060007f00000000000000000000000000000000000000000000000000000000000000006001600160a01b0316630bfbd4fe846001600160a01b031663652c76e46040518163ffffffff1660e01b8152600401602060405180830381865afa1580156110a0573d6000803e3d6000fd5b505050506040513d601f19601f820116820180604052508101906110c49190611a4e565b8b8b6110d18f60056119a0565b6040516001600160e01b031960e087901b16815260ff94851660048201529284166024840152921660448201526064810191909152608401600060405180830381865afa158015611126573d6000803e3d6000fd5b505050506040513d6000823e601f3d908101601f1916820160405261114e9190810190611b20565b6040516308adcb2560e21b81529091506001600160a01b037f000000000000000000000000000000000000000000000000000000000000000016906322b72c94906111a1908a9085908790600401611c7e565b602060405180830381865afa1580156111be573d6000803e3d6000fd5b505050506040513d601f19601f820116820180604052508101906104f5919061183b565b60038390556000805460ff60a01b1916600160a01b831515021781556002839055600180549161121183611d76565b9190505550505050565b60405180604001604052806002906020820280368337509192915050565b60ff81168114610dc157600080fd5b600080600080600080600080610100898b03121561126557600080fd5b883597506020890135965060408901359550606089013594506080890135935060a0890135925060c089013561129a81611239565b915060e08901356112aa81611239565b809150509295985092959890939650565b634e487b7160e01b600052604160045260246000fd5b6040805190810167ffffffffffffffff811182821017156112f4576112f46112bb565b60405290565b60405160a0810167ffffffffffffffff811182821017156112f4576112f46112bb565b604051601f8201601f1916810167ffffffffffffffff81118282101715611346576113466112bb565b604052919050565b60006080828403121561136057600080fd5b82601f83011261136f57600080fd5b6040516080810181811067ffffffffffffffff82111715611392576113926112bb565b6040528060808401858111156113a757600080fd5b845b818110156113c15780358352602092830192016113a9565b509195945050505050565b600067ffffffffffffffff8211156113e6576113e66112bb565b5060051b60200190565b6000602080838503121561140357600080fd5b823567ffffffffffffffff81111561141a57600080fd5b8301601f8101851361142b57600080fd5b803561143e611439826113cc565b61131d565b81815260059190911b8201830190838101908783111561145d57600080fd5b928401925b8284101561147b57833582529284019290840190611462565b979650505050505050565b6000806040838503121561149957600080fd5b50508035926020909101359150565b6000604082840312156114ba57600080fd5b82601f8301126114c957600080fd5b6114d16112d1565b8060408401858111156114e357600080fd5b845b818110156114fd5780358452602093840193016114e5565b509095945050505050565b600060a0828403121561151a57600080fd5b82601f83011261152957600080fd5b6115316112fa565b8060a08401858111156114e357600080fd5b60008061012080848603121561155857600080fd5b83359250602085603f86011261156d57600080fd5b604051610100810181811067ffffffffffffffff82111715611591576115916112bb565b6040529185019180878411156115a657600080fd5b8287015b848110156115c157803582529083019083016115aa565b509497909650945050505050565b6000606082840312156115e157600080fd5b82601f8301126115f057600080fd5b6040516060810181811067ffffffffffffffff82111715611613576116136112bb565b6040528060608401858111156113a757600080fd5b600080600080600060a0868803121561164057600080fd5b853594506020860135935060408601359250606086013561166081611239565b9150608086013561167081611239565b809150509295509295909350565b6001600160a01b0381168114610dc157600080fd5b6000602082840312156116a557600080fd5b81356116b08161167e565b9392505050565b6000602082840312156116c957600080fd5b5051919050565b600080604083850312156116e357600080fd5b505080516020909101519092909150565b634e487b7160e01b600052603260045260246000fd5b634e487b7160e01b600052601160045260246000fd5b808201808211156105825761058261170a565b60808101818360005b600481101561175b57815183526020928301929091019060010161173c565b50505092915050565b815160009082906020808601845b8381101561178e57815185529382019390820190600101611772565b50929695505050505050565b6000825160005b818110156117bb57602081860181015185830152016117a1565b506000920191825250919050565b6000826117e657634e487b7160e01b600052601260045260246000fd5b500690565b60408101818360005b600281101561175b5781518352602092830192909101906001016117f4565b60a08101818360005b600581101561175b57815183526020928301929091019060010161181c565b60006020828403121561184d57600080fd5b815180151581146116b057600080fd5b6000806000806080858703121561187357600080fd5b845161187e81611239565b602086015190945061188f81611239565b60408601519093506118a081611239565b60608601519092506118b181611239565b939692955090935050565b600181815b808511156118f75781600019048211156118dd576118dd61170a565b808516156118ea57918102915b93841c93908002906118c1565b509250929050565b60008261190e57506001610582565b8161191b57506000610582565b8160018114611931576002811461193b57611957565b6001915050610582565b60ff84111561194c5761194c61170a565b50506001821b610582565b5060208310610133831016604e8410600b841016171561197a575081810a610582565b61198483836118bc565b80600019048211156119985761199861170a565b029392505050565b60006116b060ff8416836118ff565b6000806000606084860312156119c457600080fd5b83516119cf8161167e565b60208501519093506119e08161167e565b60408501519092506119f18161167e565b809150509250925092565b818103818111156105825761058261170a565b80820281158282048414176105825761058261170a565b60608101818360005b600381101561175b578151835260209283019290910190600101611a2f565b600060208284031215611a6057600080fd5b81516116b081611239565b600060408284031215611a7d57600080fd5b611a856112d1565b9050815181526020820151602082015292915050565b600082601f830112611aac57600080fd5b611ab46112d1565b806040840185811115611ac657600080fd5b845b818110156114fd578051845260209384019301611ac8565b600060808284031215611af257600080fd5b611afa6112d1565b9050611b068383611a9b565b8152611b158360408401611a9b565b602082015292915050565b60006020808385031215611b3357600080fd5b825167ffffffffffffffff80821115611b4b57600080fd5b908401906101e08287031215611b6057600080fd5b611b686112fa565b611b728784611a6b565b81526040611b8288828601611ae0565b85830152611b938860c08601611ae0565b81830152611ba5886101408601611ae0565b60608301526101c084015183811115611bbd57600080fd5b80850194505087601f850112611bd257600080fd5b83519250611be2611439846113cc565b83815260069390931b84018501928581019089851115611c0157600080fd5b948601945b84861015611c2757611c188a87611a6b565b82529482019490860190611c06565b60808401525090979650505050505050565b8060005b6002811015610f05578151845260209384019390910190600101611c3d565b611c67828251611c39565b6020810151611c796040840182611c39565b505050565b60006101408286835b6008811015611ca6578151835260209283019290910190600101611c87565b505050806101008401526103208301611ccc828501875180518252602090810151910152565b6020915081860151611ce2610180860182611c5c565b50604080870151611cf7610200870182611c5c565b506060870151611d0b610280870182611c5c565b5060808701516101e06103008701528051928390528301916000906103408701905b80831015611d5e57611d4a82865180518252602090810151910152565b938501936001929092019190830190611d2d565b50809550505050505082610120830152949350505050565b600060018201611d8857611d8861170a565b506001019056fea26469706673582212203d484bb3159812241b769a1c73f9528ac5b0316535971098d0407a3630bbc0dc64736f6c63430008130033a2646970667358221220842048697e5d0a23207108340edd3f28c5f83818a0e9fb87b8ce0ddd815c64f764736f6c63430008130033",
  "libraries": {
    "PoseidonT3": "0xf2e06d2452A0d124AF0F6b8e63662131729E7F0A",
    "PoseidonT4": "0x6397684f16b6bCe2f47D9C5d51DbE45c8d570937",
    "PoseidonT5": "0x9dE016B7bbbE32cb5E18163530b87F810e76483C",
    "PoseidonT6": "0x08979464144853c9a97a98a624597C4698acda8e"
  },
  "devdoc": {
    "kind": "dev",
    "methods": {
      "deploy(address,address,address,address)": {
        "params": {
          "_owner": "Owner of the MessageProcessor contract",
          "_poll": "Poll contract",
          "_verifier": "Verifier contract",
          "_vkRegistry": "VkRegistry contract"
        },
        "returns": {
          "messageProcessorAddr": "The deployed MessageProcessor contract"
        }
      }
    },
    "title": "MessageProcessorFactory",
    "version": 1
  },
  "userdoc": {
    "kind": "user",
    "methods": {
      "MESSAGE_DATA_LENGTH()": {
        "notice": "the length of a MACI message"
      },
      "deploy(address,address,address,address)": {
        "notice": "Deploy a new MessageProcessor contract and return the address."
      }
    },
    "notice": "A factory contract which deploys MessageProcessor contracts.",
    "version": 1
  },
  "storageLayout": {
    "storage": [],
    "types": null
  }
}