{
  "address": "0x44A1E742E3E767478828025CAf4A018d57789b2b",
  "abi": [
    {
      "inputs": [],
      "stateMutability": "payable",
      "type": "constructor"
    },
    {
      "inputs": [],
      "name": "InvalidMaxValues",
      "type": "error"
    },
    {
      "inputs": [],
      "name": "MESSAGE_DATA_LENGTH",
      "outputs": [
        {
          "internalType": "uint8",
          "name": "",
          "type": "uint8"
        }
      ],
      "stateMutability": "view",
      "type": "function"
    },
    {
      "inputs": [
        {
          "internalType": "uint256",
          "name": "_duration",
          "type": "uint256"
        },
        {
          "components": [
            {
              "internalType": "uint256",
              "name": "maxMessages",
              "type": "uint256"
            },
            {
              "internalType": "uint256",
              "name": "maxVoteOptions",
              "type": "uint256"
            }
          ],
          "internalType": "struct Params.MaxValues",
          "name": "_maxValues",
          "type": "tuple"
        },
        {
          "components": [
            {
              "internalType": "uint8",
              "name": "intStateTreeDepth",
              "type": "uint8"
            },
            {
              "internalType": "uint8",
              "name": "messageTreeSubDepth",
              "type": "uint8"
            },
            {
              "internalType": "uint8",
              "name": "messageTreeDepth",
              "type": "uint8"
            },
            {
              "internalType": "uint8",
              "name": "voteOptionTreeDepth",
              "type": "uint8"
            }
          ],
          "internalType": "struct Params.TreeDepths",
          "name": "_treeDepths",
          "type": "tuple"
        },
        {
          "components": [
            {
              "internalType": "uint256",
              "name": "x",
              "type": "uint256"
            },
            {
              "internalType": "uint256",
              "name": "y",
              "type": "uint256"
            }
          ],
          "internalType": "struct DomainObjs.PubKey",
          "name": "_coordinatorPubKey",
          "type": "tuple"
        },
        {
          "internalType": "address",
          "name": "_maci",
          "type": "address"
        },
        {
          "internalType": "contract TopupCredit",
          "name": "_topupCredit",
          "type": "address"
        },
        {
          "internalType": "address",
          "name": "_pollOwner",
          "type": "address"
        }
      ],
      "name": "deploy",
      "outputs": [
        {
          "internalType": "address",
          "name": "pollAddr",
          "type": "address"
        }
      ],
      "stateMutability": "nonpayable",
      "type": "function"
    }
  ],
  "transactionHash": "0xc3e3f185aae011a967c9595c7539285582722b79a024251726170f7e014e2c55",
  "args": [],
  "numDeployments": 1,
  "solcInputHash": "7461aa873cfc3f45ef4ea80bd8190233",
  "bytecode": "0x6080604052614d96806100136000396000f3fe60806040523480156200001157600080fd5b50600436106200003a5760003560e01c8063683f3dc3146200003f578063b43c4969146200005f575b600080fd5b62000048600a81565b60405160ff90911681526020015b60405180910390f35b6200007662000070366004620002f6565b6200008f565b6040516001600160a01b03909116815260200162000056565b60006604000000000000876020013510620000bd576040516302c3596560e51b815260040160405180910390fd5b6000620000d16040880160208901620003b2565b604051620000df90620002a8565b60ff9091168152602001604051809103906000f08015801562000106573d6000803e3d6000fd5b50905060006040518060600160405280876001600160a01b03168152602001836001600160a01b03168152602001866001600160a01b0316815250905060008a8a8a8a856040516200015890620002b6565b62000168959493929190620003d7565b604051809103906000f08015801562000185573d6000803e3d6000fd5b5060405163f2fde38b60e01b81526001600160a01b0380831660048301529192509084169063f2fde38b90602401600060405180830381600087803b158015620001ce57600080fd5b505af1158015620001e3573d6000803e3d6000fd5b50505050806001600160a01b031663e1c7392a6040518163ffffffff1660e01b8152600401600060405180830381600087803b1580156200022357600080fd5b505af115801562000238573d6000803e3d6000fd5b505060405163f2fde38b60e01b81526001600160a01b0388811660048301528416925063f2fde38b9150602401600060405180830381600087803b1580156200028057600080fd5b505af115801562000295573d6000803e3d6000fd5b50929d9c50505050505050505050505050565b61231e806200049783390190565b6125ac80620027b583390190565b600060408284031215620002d757600080fd5b50919050565b6001600160a01b0381168114620002f357600080fd5b50565b60008060008060008060008789036101808112156200031457600080fd5b88359750620003278a60208b01620002c4565b96506080605f19820112156200033c57600080fd5b50606088019450620003528960e08a01620002c4565b93506101208801356200036581620002dd565b92506101408801356200037881620002dd565b91506101608801356200038b81620002dd565b8091505092959891949750929550565b803560ff81168114620003ad57600080fd5b919050565b600060208284031215620003c557600080fd5b620003d0826200039b565b9392505050565b8581526101808101620003f7602083018780358252602090810135910152565b60ff62000404866200039b565b16606083015260ff6200041a602087016200039b565b16608083015260ff62000430604087016200039b565b1660a083015260ff62000446606087016200039b565b1660c0830152833560e0830152602084013561010083015282516001600160a01b03908116610120840152602084015181166101408401526040909301519092166101609091015294935050505056fe60e06040523480156200001157600080fd5b506040516200231e3803806200231e833981016040819052620000349162000617565b808060056200004333620005c7565b81600003620000655760405163682e504160e11b815260040160405180910390fd5b60208211156200009657604051637ccdcc9760e11b8152600481018390526020602482015260440160405180910390fd5b80600214158015620000a9575080600514155b15620000c857604051636f7b6c0360e01b815260040160405180910390fd5b6000805460ff60a01b191660028314600160a01b02179055608082905260a0819052620000f6828262000746565b60c05250507f12817f4161f2f5ded33f26c55735a77e80e4f8975483c8c2704745128417f7116101725550507f1c8de1edeabc24fc4c1595acaabb70be9b70f351d58c6fa338e1e9a994413bfb610173557f22fcda488c14b34fc60eb073fbe92fe10793e2ab14682e0f057332ddbef3d55c610174557f2db474db7c7212646cb15c6177d87be30711e6c04f1139d8e495ef1d1d998227610175557efde404053ec39a19f6ac347121a2264815dda84f910a388cb372e967a5d08c610176557f0723792ffab6ec6cfb3ece1509b9b4fb07e5bdb2299d1538e6e1db916f90cf89610177557f2a4392ec4e3d1811cd6a950cc865ee6f2342910a6551c5dce38cb995576c7c70610178557f1dead4c14f75e9d8449c80b648dcd4694c2ee50da2ba16e5e438f0d77ab02e34610179557f124c53ce0953fffb7ab5e3c143df6cd48ba747d3959fcb8086405d763ed5455061017a557f02bae19605746a8cd3f0927b2c01630f36f4d1bab9216ca839833e7ff6efa20661017b557f1f8375099becf17173d457d0d07bfb74c7067df1143b5ad987046e8e66817bc961017c557f0e13e954d61bb3fa3b03e7d136ca909b610fa2ca4443d920d94d16684f2b83d461017d557f1416ef2fc4f88fcfc4f9eb12f8e214b1c3e31c6c10ece9cfa51f078a3bbf345761017e557f032f915ff71e198a7955d2697249f40fb94c65812ed24e670c9700f52fdf6e0e61017f557f08bfebf4b3ddb0f8c51dd40193f5996da9f3d799ee0d8beb6be4038132df60b4610180557f065ac498cf4a5acaeb3b6cee826da9f834c961fa39feff6ae925b90dff79b613610181557f2e72c628101a93201b912a3e3fe96d39b0a9076ec39b7935a015c59bb32b8a2a610182557f19bba68e7b9da1e6ec42e52d7ab2adaf3b6a5521b1a454ec70f62e0ab702c085610183557f0de1f72745a5af2a34cac412e00eb6c8b5db1f3b52fa1bff88076c2726b83b08610184557f2e8f152603b2fac10d6a14c841327c23c502537367ccb1e42fab9a3bd9db2a8d610185557f14e16c3e0dcfd7e621a32627ebf37f6c0afb4467d34c7b7aeffded11769dec85610186557f0be1e62127948b4805c85a1d836574f0892ca6473fcde98f3fd1781248a9768f610187557f0930288fbd7c849197c8372f1dd8f9087f8a03f09b9cd904a469c15ef6b1b515610188557f231cac34e215e3f404d2fcfb79e0705deeb3d40978f0ee31072f6cbc1b579e33610189557f2e0e3cd2718ac7199b81dc14e841de40a9536b7ffe95fa1fc9c6b799e43e2c9761018a557f0718452506f0a232e98966d84b1a4675a66bd80263a2dc58bdac873825752fc361018b557f162d4ed998307d6e132edbf5c11f62f53d4636aa10cb3c2244c2bf5577168c3761018c557f247d6a5544a8f295a894ae77c7efcdcbf52e3bf4e5d0c0d2f40557a61d44984861018d557f0b8de3868471f109e91670daca698dba917d1c5535821f33aa9598d1db8e3d1961018e557f29851997020f527c92e20f030d232b81d334144a641e6a8866b46dd925005bbb61018f557f1a9cfcbe29a2b6503a03049727c0bca3111afd62f2836f392080321d1b4ef642610190557f1aa3ead91fa89cc1d6cb1d0eb76a27190c6abfdd3265d6d0a1e5c58feddaddf6610191557f0702fc26a7d367e6677efefd95204a7e00144c2fc7dbc2a581aa00d99f51f081610192556200075b565b600080546001600160a01b038381166001600160a01b0319831681178455604051919092169283917f8be0079c531659141344cd1fd0a4f28419497f9722a3daafe3b4186f6b6457e09190a35050565b6000602082840312156200062a57600080fd5b5051919050565b634e487b7160e01b600052601160045260246000fd5b600181815b80851115620006885781600019048211156200066c576200066c62000631565b808516156200067a57918102915b93841c93908002906200064c565b509250929050565b600082620006a15750600162000740565b81620006b05750600062000740565b8160018114620006c95760028114620006d457620006f4565b600191505062000740565b60ff841115620006e857620006e862000631565b50506001821b62000740565b5060208310610133831016604e8410600b841016171562000719575081810a62000740565b62000725838362000647565b80600019048211156200073c576200073c62000631565b0290505b92915050565b600062000754838362000690565b9392505050565b60805160a05160c051611b1562000809600039600081816103ea01528181610a2501528181610ac201528181610c7f0152610d820152600081816103230152818161056e015281816106e401528181610bb401528181610f2b0152818161109f015261130001526000818161041a0152818161047b0152818161054401528181610bed01528181610cb801528181610d0201528181610ecc01528181610f82015261123b0152611b156000f3fe608060405234801561001057600080fd5b50600436106101585760003560e01c806381d6a24a116100c3578063c00bdbcc1161007c578063c00bdbcc146102b8578063c15da65b146102cb578063d9c55ce1146102de578063dda89a6e146102e6578063e93fb4d4146102f0578063f2fde38b1461030357600080fd5b806381d6a24a146102455780638da5cb5b146102615780639cfced971461027c578063a27154ba1461028f578063b6a64acd14610297578063bea140b3146102a557600080fd5b806358bfc3791161011557806358bfc379146101cc5780635bb93995146101df5780635bf1fa4d146101f257806362a361bb1461020557806369e7c58614610218578063715018a61461023b57600080fd5b80631b9b8aa71461015d5780631ffc735d1461018357806324a47aeb146101965780633bfa6fce146101a95780633dfb88b2146101b15780633e1a8cc1146101c4575b600080fd5b61017061016b366004611522565b610316565b6040519081526020015b60405180910390f35b610170610191366004611522565b610399565b6101706101a4366004611522565b6104c7565b6101706106d8565b6101706101bf366004611582565b610723565b6101706107a4565b6101706101da366004611600565b6107d3565b6101706101ed3660046116a6565b61086d565b6101706102003660046116a6565b610892565b6101706102133660046116c8565b610931565b61016e5461022b90610100900460ff1681565b604051901515815260200161017a565b61024361096b565b005b610170546001546040805192835260208301919091520161017a565b6000546040516001600160a01b03909116815260200161017a565b61017061028a366004611723565b61097f565b610170602081565b61016e5461022b9060ff1681565b6101706102b336600461177c565b6109b9565b6102436102c6366004611522565b6109f3565b6102436102d9366004611522565b610a6f565b610243610c75565b6101706101715481565b6101706102fe366004611522565b610dbf565b6102436103113660046117d5565b610dfa565b61017154600090610347837f00000000000000000000000000000000000000000000000000000000000000006118ff565b101561037d5761017154604051627289df60e61b8152610374918491600401918252602082015260400190565b60405180910390fd5b61014d82602181106103915761039161190b565b015492915050565b60006103a3610e70565b50610171546103b3826000610eca565b6103be816001611921565b610171556103cf61014d6000611487565b600061016f5561016e805460ff191690556101715461040f907f000000000000000000000000000000000000000000000000000000000000000090611934565b6000036104c25760027f0000000000000000000000000000000000000000000000000000000000000000602181106104495761044961190b565b600402015460018054600090815261014c602052604081209290925580549161047183611956565b90915550600290507f0000000000000000000000000000000000000000000000000000000000000000602181106104aa576104aa61190b565b6004020160008091018190556104c290608690611487565b919050565b60006104d1610e70565b816000036104f257604051630543d40760e11b815260040160405180910390fd5b61016e5460ff1661051657604051631e596e4360e11b815260040160405180910390fd5b602082111561054257604051632cd31ae960e01b81526004810183905260206024820152604401610374565b7f00000000000000000000000000000000000000000000000000000000000000005b61017154610592827f00000000000000000000000000000000000000000000000000000000000000006118ff565b10156105aa57806105a281611956565b915050610564565b808310156105d457604051627289df60e61b81526004810184905260248101829052604401610374565b8083036106105761016f5461014d84602181106105f3576105f361190b565b0155505061016e805461ff00191661010017905561016f54919050565b61016f549150805b838110156106aa57600061062b8261100b565b600054909150600160a01b900460ff161561066357610648611496565b8481526020810182905261065b81610931565b945050610697565b61066b6114b4565b848152602081018290526040810182905260608101829052608081018290526106938161097f565b9450505b50806106a281611956565b915050610618565b508161014d84602181106106c0576106c061190b565b015561016e805461ff00191661010017905550919050565b60015b600154610708827f00000000000000000000000000000000000000000000000000000000000000006118ff565b1015610720578061071881611956565b9150506106db565b90565b60405163248f667760e01b8152600090739dE016B7bbbE32cb5E18163530b87F810e76483C9063248f66779061075d90859060040161196f565b602060405180830381865af415801561077a573d6000803e3d6000fd5b505050506040513d601f19601f8201168201806040525081019061079e91906119a0565b92915050565b61016e5460009060ff166107cb57604051631e596e4360e11b815260040160405180910390fd5b5061016f5490565b60007f30644e72e131a029b85045b68181585d2833e84879b9709143e1f593f000000160028360405160200161080991906119b9565b60408051601f1981840301815290829052610823916119ef565b602060405180830381855afa158015610840573d6000803e3d6000fd5b5050506040513d601f19601f8201168201806040525081019061086391906119a0565b61079e9190611934565b6000610877611496565b8381526020810183905261088a81610931565b949350505050565b600061089c6114b4565b600284602181106108af576108af61190b565b60040201548152600284602181106108c9576108c961190b565b60040201600101548160016020020152600284602181106108ec576108ec61190b565b600402016002015481600260200201526002846021811061090f5761090f61190b565b6004020160030154816003602002015282816004602002015261088a8161097f565b6040516314d2f97b60e11b815260009073f2e06d2452A0d124AF0F6b8e63662131729E7F0A906329a5f2f69061075d908590600401611a1e565b610973610e70565b61097d6000611021565b565b604051630926f44b60e31b81526000907308979464144853c9a97a98a624597C4698acda8e90634937a2589061075d908590600401611a46565b6040516304b98e1d60e31b8152600090736397684f16b6bCe2f47D9C5d51DbE45c8d570937906325cc70e89061075d908590600401611a6e565b6109fb610e70565b60018054600090815261014c6020526040812083905581549190610a1e83611956565b91905055507f00000000000000000000000000000000000000000000000000000000000000006101716000828254610a569190611921565b9091555050600061016f555061016e805460ff19169055565b610a77610e70565b61016e5460ff1615610a9c57604051630d36aec160e01b815260040160405180910390fd5b61017154600003610ac0576040516316a0341160e11b815260040160405180910390fd5b7f000000000000000000000000000000000000000000000000000000000000000061017154610aef9190611934565b15610afc57610afc610c75565b600154600103610b2557610b106000610dbf565b61016f5561016e805460ff1916600117905550565b6000610b2f6106d8565b610170549091506000905b600154811015610bab578315801590610b5257508382145b15610b5d5750505050565b610b74610b6c61017054610dbf565b600085611071565b6101708054906000610b8583611956565b91905055508180610b9590611956565b9250508080610ba390611956565b915050610b3a565b506000610bd8837f00000000000000000000000000000000000000000000000000000000000000006118ff565b90506001546101705403610c41576000610c117f000000000000000000000000000000000000000000000000000000000000000061100b565b6001549091505b82811015610c3e57610c2c82600087611071565b80610c3681611956565b915050610c18565b50505b60a78360218110610c5457610c5461190b565b600402016000015461016f55505061016e805460ff19166001179055505b50565b610c7d610e70565b7f000000000000000000000000000000000000000000000000000000000000000061017154610cac9190611934565b600003610cf457610cdc7f000000000000000000000000000000000000000000000000000000000000000061100b565b600154600090815261014c6020526040902055610d65565b610cfe6000611239565b60027f000000000000000000000000000000000000000000000000000000000000000060218110610d3157610d3161190b565b6004020154600154600090815261014c6020526040812091909155610d58906002906114d2565b610d6561014d6000611487565b60006001546001610d769190611921565b60018190559050610da77f000000000000000000000000000000000000000000000000000000000000000082611a96565b6101715550600061016f5561016e805460ff19169055565b60008160015411610de65760405163042a2e7160e11b815260048101839052602401610374565b50600090815261014c602052604090205490565b610e02610e70565b6001600160a01b038116610e675760405162461bcd60e51b815260206004820152602660248201527f4f776e61626c653a206e6577206f776e657220697320746865207a65726f206160448201526564647265737360d01b6064820152608401610374565b610c7281611021565b6000546001600160a01b0316331461097d5760405162461bcd60e51b815260206004820181905260248201527f4f776e61626c653a2063616c6c6572206973206e6f7420746865206f776e65726044820152606401610374565b7f0000000000000000000000000000000000000000000000000000000000000000811115610f0b5760405163d1459f7960e01b815260040160405180910390fd5b600060868260218110610f2057610f2061190b565b01549050610f4f60017f0000000000000000000000000000000000000000000000000000000000000000611aad565b8114610fd4578260028360218110610f6957610f6961190b565b600402018260048110610f7e57610f7e61190b565b01557f00000000000000000000000000000000000000000000000000000000000000008214610fcf5760868260218110610fba57610fba61190b565b018054906000610fc983611956565b91905055505b505050565b610fde82846113a5565b925060868260218110610ff357610ff361190b565b60009101558161100281611956565b92505050610f0b565b600061017282602181106103915761039161190b565b600080546001600160a01b038381166001600160a01b0319831681178455604051919092169283917f8be0079c531659141344cd1fd0a4f28419497f9722a3daafe3b4186f6b6457e09190a35050565b8082111561107e57505050565b600061012b83602181106110945761109461190b565b015490506110c360017f0000000000000000000000000000000000000000000000000000000000000000611aad565b8114611121578360a784602181106110dd576110dd61190b565b6004020182600481106110f2576110f261190b565b015561012b83602181106111085761110861190b565b01805490600061111783611956565b9190505550611233565b60008054600160a01b900460ff161561116e5761113c611496565b60a7856021811061114f5761114f61190b565b600402015481526020810186905261116681610931565b915050611203565b6111766114b4565b60005b838160ff1610156111dd5760a786602181106111975761119761190b565b600402018160ff16600481106111af576111af61190b565b0154828260ff16600581106111c6576111c661190b565b6020020152806111d581611ac0565b915050611179565b50858184600581106111f1576111f161190b565b60200201526111ff8161097f565b9150505b61012b84602181106112175761121761190b565b60009101556112318161122b866001611921565b85611071565b505b50505050565b7f0000000000000000000000000000000000000000000000000000000000000000811015610c72576000608682602181106112765761127661190b565b01549050801561137a57600061128a6114b4565b60006112958561100b565b905060005b848160ff1610156112fe57600286602181106112b8576112b861190b565b600402018160ff16600481106112d0576112d061190b565b0154838260ff16600581106112e7576112e761190b565b6020020152806112f681611ac0565b91505061129a565b7f00000000000000000000000000000000000000000000000000000000000000008160ff1610156113565781838260ff166005811061133f5761133f61190b565b60200201528061134e81611ac0565b9150506112fe565b61135f8361097f565b935061137584611370886001611921565b610eca565b505050505b6086826021811061138d5761138d61190b565b60009101558161139c81611956565b92505050611239565b60006113af6114b4565b600284602181106113c2576113c261190b565b60040201548152600284602181106113dc576113dc61190b565b60040201600101548160016020020152600284602181106113ff576113ff61190b565b60040201600201548160026020020152600284602181106114225761142261190b565b600402016003015481600360200201528281600460200201526114448161097f565b9150600284602181106114595761145961190b565b60040201600061148091905060008155600101600081556001016000815560010160009055565b5092915050565b50610c729060218101906114e1565b60405180604001604052806002906020820280368337509192915050565b6040518060a001604052806005906020820280368337509192915050565b50610c729060848101906114fa565b5b808211156114f657600081556001016114e2565b5090565b808211156114f6576000808255600182018190556002820181905560038201556004016114fa565b60006020828403121561153457600080fd5b5035919050565b634e487b7160e01b600052604160045260246000fd5b604051601f8201601f1916810167ffffffffffffffff8111828210171561157a5761157a61153b565b604052919050565b60006080828403121561159457600080fd5b82601f8301126115a357600080fd5b6040516080810181811067ffffffffffffffff821117156115c6576115c661153b565b6040528060808401858111156115db57600080fd5b845b818110156115f55780358352602092830192016115dd565b509195945050505050565b6000602080838503121561161357600080fd5b823567ffffffffffffffff8082111561162b57600080fd5b818501915085601f83011261163f57600080fd5b8135818111156116515761165161153b565b8060051b9150611662848301611551565b818152918301840191848101908884111561167c57600080fd5b938501935b8385101561169a57843582529385019390850190611681565b98975050505050505050565b600080604083850312156116b957600080fd5b50508035926020909101359150565b6000604082840312156116da57600080fd5b82601f8301126116e957600080fd5b6040516040810181811067ffffffffffffffff8211171561170c5761170c61153b565b80604052508060408401858111156115db57600080fd5b600060a0828403121561173557600080fd5b82601f83011261174457600080fd5b60405160a0810181811067ffffffffffffffff821117156117675761176761153b565b6040528060a08401858111156115db57600080fd5b60006060828403121561178e57600080fd5b82601f83011261179d57600080fd5b6040516060810181811067ffffffffffffffff821117156117c0576117c061153b565b6040528060608401858111156115db57600080fd5b6000602082840312156117e757600080fd5b81356001600160a01b03811681146117fe57600080fd5b9392505050565b634e487b7160e01b600052601160045260246000fd5b600181815b8085111561185657816000190482111561183c5761183c611805565b8085161561184957918102915b93841c9390800290611820565b509250929050565b60008261186d5750600161079e565b8161187a5750600061079e565b8160018114611890576002811461189a576118b6565b600191505061079e565b60ff8411156118ab576118ab611805565b50506001821b61079e565b5060208310610133831016604e8410600b84101617156118d9575081810a61079e565b6118e3838361181b565b80600019048211156118f7576118f7611805565b029392505050565b60006117fe838361185e565b634e487b7160e01b600052603260045260246000fd5b8082018082111561079e5761079e611805565b60008261195157634e487b7160e01b600052601260045260246000fd5b500690565b60006001820161196857611968611805565b5060010190565b60808101818360005b6004811015611997578151835260209283019290910190600101611978565b50505092915050565b6000602082840312156119b257600080fd5b5051919050565b815160009082906020808601845b838110156119e3578151855293820193908201906001016119c7565b50929695505050505050565b6000825160005b81811015611a1057602081860181015185830152016119f6565b506000920191825250919050565b60408101818360005b6002811015611997578151835260209283019290910190600101611a27565b60a08101818360005b6005811015611997578151835260209283019290910190600101611a4f565b60608101818360005b6003811015611997578151835260209283019290910190600101611a77565b808202811582820484141761079e5761079e611805565b8181038181111561079e5761079e611805565b600060ff821660ff8103611ad657611ad6611805565b6001019291505056fea2646970667358221220c029a4f718a97de8e420cb66eeb63348c182e9fec48fac0dde33ddb1b04025ba64736f6c6343000813003360e0604052604051620025ac380380620025ac83398101604081905262000026916200044f565b62000031336200023c565b7f0ad794e7fb50257e0edc93fe4616c69ea691e7a6c653333b6a5b507d798947276001557ec31c90221285dc87ee66daadc19f64f922e45a613f4f5429d74ddc7d66e0236002557f2afdf0e1d10d07d0df3a8481202bf2595108195e34d4ccb88742641c576aa77d6003557f177bbb5acaafc1f1deb73b8ae33f97132089ab84039048a096e202b1f8c429106004557f25c1a155f21ae70ca3b8bdb27961efdee58bdafff83274c18dd37d0f0a8bfbb560055581517f30644e72e131a029b85045b68181585d2833e84879b9709143e1f593f00000011115806200013957507f30644e72e131a029b85045b68181585d2833e84879b9709143e1f593f0000001826020015110155b1562000158576040516354be831760e11b815260040160405180910390fd5b81516007819055602083015160088190556200017591906200028c565b6080528051601180546001600160a01b039283166001600160a01b03199182161790915560208084015160128054918516918416919091179055604093840151601380549190941692169190911790915560c0959095528351600e5592840151600f5550805160108054948301519383015160609093015160ff90811663010000000263ff0000001994821662010000029490941663ffff0000199582166101000261ffff1990971691909316179490941792909216919091171790554260a052620005b1565b600080546001600160a01b038381166001600160a01b0319831681178455604051919092169283917f8be0079c531659141344cd1fd0a4f28419497f9722a3daafe3b4186f6b6457e09190a35050565b6000620002986200033b565b83815260208101839052620002ad81620002b5565b949350505050565b6040516314d2f97b60e11b815260009073f2e06d2452A0d124AF0F6b8e63662131729E7F0A906329a5f2f690620002f190859060040162000564565b602060405180830381865af41580156200030f573d6000803e3d6000fd5b505050506040513d601f19601f8201168201806040525081019062000335919062000597565b92915050565b60405180604001604052806002906020820280368337509192915050565b604051608081016001600160401b03811182821017156200038a57634e487b7160e01b600052604160045260246000fd5b60405290565b604051606081016001600160401b03811182821017156200038a57634e487b7160e01b600052604160045260246000fd5b600060408284031215620003d457600080fd5b604080519081016001600160401b03811182821017156200040557634e487b7160e01b600052604160045260246000fd5b604052825181526020928301519281019290925250919050565b805160ff811681146200043157600080fd5b919050565b6001600160a01b03811681146200044c57600080fd5b50565b60008060008060008587036101808112156200046a57600080fd5b865195506200047d8860208901620003c1565b94506080605f19820112156200049257600080fd5b6200049c62000359565b620004aa606089016200041f565b8152620004ba608089016200041f565b6020820152620004cd60a089016200041f565b6040820152620004e060c089016200041f565b60608201529350620004f68860e08901620003c1565b9250606061011f19820112156200050c57600080fd5b506200051762000390565b610120870151620005288162000436565b81526101408701516200053b8162000436565b6020820152610160870151620005518162000436565b6040820152949793965091945092919050565b60408101818360005b60028110156200058e5781518352602092830192909101906001016200056d565b50505092915050565b600060208284031215620005aa57600080fd5b5051919050565b60805160a05160c051611f7762000635600039600081816102e70152818161056301528181610812015281816109ff01528181610e3101528181610f6e01526110ad0152600081816102c60152818161053a015281816107e9015281816109d601528181610e0801528181610f450152611084015260006103b80152611f776000f3fe608060405234801561001057600080fd5b50600436106101fa5760003560e01c8063715018a61161011a578063ac98e5df116100ad578063bea140b31161007c578063bea140b3146104eb578063c17268d9146104fe578063e1c7392a14610507578063f2fde38b1461050f578063fba630f21461052257600080fd5b8063ac98e5df1461041b578063ae93a21214610471578063b5f38c8114610484578063bc14ee2b146104a157600080fd5b80638aa0ba92116100e95780638aa0ba92146103b35780638da5cb5b146103da5780639c971729146103f55780639cfced971461040857600080fd5b8063715018a6146103725780637296aaea1461037a5780637d0a81c81461038d57806386f3c3f7146103a057600080fd5b80633dfb88b2116101925780635bb93995116101615780635bb93995146103295780635d5909dd1461033c57806362a361bb14610345578063683f3dc31461035857600080fd5b80633dfb88b2146102b15780634909229f146102c45780634f367f0f1461030b57806358bfc3791461031657600080fd5b8063167fd483116101ce578063167fd4831461026a578063184ff47f1461027d57806331e766a514610290578063394b78a21461029e57600080fd5b8062329f2f146101ff5780630396a0ce1461020957806306912d3c146102315780630f4cf69214610253575b600080fd5b61020761052b565b005b600e54600f54610217919082565b604080519283526020830191909152015b60405180910390f35b61024461023f36600461177c565b61065b565b604051610228939291906117d4565b61025c600c5481565b604051908152602001610228565b61025c6102783660046118c5565b610709565b61020761028b3660046118fc565b6107e2565b600754600854610217919082565b6102076102ac36600461191e565b6109cf565b61025c6102bf366004611961565b610ba6565b7f00000000000000000000000000000000000000000000000000000000000000007f0000000000000000000000000000000000000000000000000000000000000000610217565b600d54600c54610217565b61025c6103243660046119df565b610c27565b61025c6103373660046118fc565b610cc1565b61025c600d5481565b61025c610353366004611a85565b610ce6565b610360600a81565b60405160ff9091168152602001610228565b610207610d20565b610207610388366004611aa1565b610d34565b61025c61039b366004611b6a565b610db9565b6102076103ae3660046118fc565b610df9565b61025c7f000000000000000000000000000000000000000000000000000000000000000081565b6000546040516001600160a01b039091168152602001610228565b610207610403366004611bcc565b610f36565b61025c610416366004611be5565b61103b565b6010546104449060ff808216916101008104821691620100008204811691630100000090041684565b6040805160ff95861681529385166020850152918416918301919091529091166060820152608001610228565b61020761047f366004611bcc565b611075565b600a546104919060ff1681565b6040519015158152602001610228565b6011546012546013546104c1926001600160a01b03908116928116911683565b604080516001600160a01b0394851681529284166020840152921691810191909152606001610228565b61025c6104f9366004611c3e565b61137a565b61025c600b5481565b6102076113b4565b61020761051d366004611cac565b6114de565b61025c60095481565b61053361155c565b600061055f7f000000000000000000000000000000000000000000000000000000000000000042611cdf565b90507f000000000000000000000000000000000000000000000000000000000000000081116105a157604051630931513d60e11b815260040160405180910390fd5b6012546010546040516324a47aeb60e01b81526201000090910460ff1660048201526000916001600160a01b0316906324a47aeb906024016020604051808303816000875af11580156105f8573d6000803e3d6000fd5b505050506040513d601f19601f8201168201806040525081019061061c9190611cf2565b90507fc5624680ab5d50c84507f9e0dc2032163de2bda906ab8a661a53dd4d43bd5dc78160405161064f91815260200190565b60405180910390a15050565b610663611606565b60408051808201909152600080825260208201526000610681611625565b85518152602080870151828201526040805180820182527f171e826ad4a870fd925e0bf0e87884e70e080879c2205ef10114f28a3b6f6dd781527f2bd407d897fbbca9f88adfd2d15252e69de8c1564eb4d3d27162e259172f1a1d818401528151808301909252878252918101839052945092506106ff8484610709565b9150509250925092565b6000610713611644565b602084810180515183528051820151918301919091528051604090810151908301528051606090810151908301525160809081015190820152610754611644565b6020858101805160a0908101518452815160c0015184840152815160e001516040808601919091528251610100015160608601529151610120015160808501528151908101909152865181526107d99181016107af8561103b565b81526020016107bd8461103b565b815260200186600001518152602001866020015181525061103b565b95945050505050565b600061080e7f000000000000000000000000000000000000000000000000000000000000000042611cdf565b90507f000000000000000000000000000000000000000000000000000000000000000081106108505760405163148fb9a960e31b815260040160405180910390fd5b600e54600c541061087457604051631ec0b2f760e01b815260040160405180910390fd5b600c805460010190556013546040516323b872dd60e01b8152336004820152306024820152604481018490526001600160a01b03909116906323b872dd906064016020604051808303816000875af11580156108d4573d6000803e3d6000fd5b505050506040513d601f19601f820116820180604052508101906108f89190611d21565b50604080518082019091528381526020810183905260008061091b83600261065b565b601254604051631ffc735d60e01b8152600481018390529395509093506001600160a01b031691631ffc735d91506024016020604051808303816000875af115801561096b573d6000803e3d6000fd5b505050506040513d601f19601f8201168201806040525081019061098f9190611cf2565b507f935afc7bb7cc33eb3e24e20dcfc75f5b21fa58e9c82cca06435238efaf9a3a58826040516109bf9190611d43565b60405180910390a1505050505050565b60006109fb7f000000000000000000000000000000000000000000000000000000000000000042611cdf565b90507f00000000000000000000000000000000000000000000000000000000000000008110610a3d5760405163148fb9a960e31b815260040160405180910390fd5b600e54600c5410610a6157604051631ec0b2f760e01b815260040160405180910390fd5b7f30644e72e131a029b85045b68181585d2833e84879b9709143e1f593f00000018235101580610ab557507f30644e72e131a029b85045b68181585d2833e84879b9709143e1f593f0000001826020013510155b15610ad3576040516354be831760e11b815260040160405180910390fd5b600c8054600190810190915583526000610af68461027836869003860186611d52565b601254604051631ffc735d60e01b8152600481018390529192506001600160a01b031690631ffc735d906024016020604051808303816000875af1158015610b42573d6000803e3d6000fd5b505050506040513d601f19601f82011682018060405250810190610b669190611cf2565b507fe2067f06dd7b8159b21a5490f8663f6bb031d9b35ed6d298b5489674cb9cda4b8484604051610b98929190611d6e565b60405180910390a150505050565b60405163248f667760e01b8152600090739dE016B7bbbE32cb5E18163530b87F810e76483C9063248f667790610be0908590600401611d97565b602060405180830381865af4158015610bfd573d6000803e3d6000fd5b505050506040513d601f19601f82011682018060405250810190610c219190611cf2565b92915050565b60007f30644e72e131a029b85045b68181585d2833e84879b9709143e1f593f0000001600283604051602001610c5d9190611dc8565b60408051601f1981840301815290829052610c7791611dfe565b602060405180830381855afa158015610c94573d6000803e3d6000fd5b5050506040513d601f19601f82011682018060405250810190610cb79190611cf2565b610c219190611e2d565b6000610ccb611662565b83815260208101839052610cde81610ce6565b949350505050565b6040516314d2f97b60e11b815260009073f2e06d2452A0d124AF0F6b8e63662131729E7F0A906329a5f2f690610be0908590600401611e4f565b610d2861155c565b610d3260006115b6565b565b828114610d545760405163ca3487f760e01b815260040160405180910390fd5b8260005b81811015610db157610da9868683818110610d7557610d75611d0b565b90506101600201803603810190610d8c9190611e77565b858584818110610d9e57610d9e611d0b565b9050604002016109cf565b600101610d58565b505050505050565b6000610dc3611680565b8251518152825160209081015181830152830151816002602002015260408301516060820152610df281610ba6565b9392505050565b610e0161155c565b6000610e2d7f000000000000000000000000000000000000000000000000000000000000000042611cdf565b90507f00000000000000000000000000000000000000000000000000000000000000008111610e6f57604051630931513d60e11b815260040160405180910390fd5b600a5460ff1615610e935760405163084ef7b960e41b815260040160405180910390fd5b60115460405163cfa1fa0360e01b815260048101859052602481018490526001600160a01b039091169063cfa1fa0390604401600060405180830381600087803b158015610ee057600080fd5b505af1158015610ef4573d6000803e3d6000fd5b505050507fbe5eae95ff0a9a2779506ae62da06dda1e349311d3f2b6ceb990ea42b6a5f20b83604051610f2991815260200190565b60405180910390a1505050565b610f3e61155c565b6000610f6a7f000000000000000000000000000000000000000000000000000000000000000042611cdf565b90507f00000000000000000000000000000000000000000000000000000000000000008111610fac57604051630931513d60e11b815260040160405180910390fd5b60125460405163c15da65b60e01b8152600481018490526001600160a01b039091169063c15da65b90602401600060405180830381600087803b158015610ff257600080fd5b505af1158015611006573d6000803e3d6000fd5b505050507f1245b881cb30fdad22b2f9fde2d5c2a3605bbdf272d5e8a2235d8c9e81aba2ce8260405161064f91815260200190565b604051630926f44b60e31b81526000907308979464144853c9a97a98a624597C4698acda8e90634937a25890610be0908590600401611e94565b61107d61155c565b60006110a97f000000000000000000000000000000000000000000000000000000000000000042611cdf565b90507f000000000000000000000000000000000000000000000000000000000000000081116110eb57604051630931513d60e11b815260040160405180910390fd5b600a5460ff161561110f5760405163084ef7b960e41b815260040160405180910390fd5b600a805460ff1916600117905560115460408051630c0775ff60e31b815290516001600160a01b039092169163603baff8916004808201926020929091908290030181865afa158015611166573d6000803e3d6000fd5b505050506040513d601f19601f8201168201806040525081019061118a9190611ebc565b6001600160a01b031663b6a64acd6040518163ffffffff1660e01b8152600401602060405180830381865afa1580156111c7573d6000803e3d6000fd5b505050506040513d601f19601f820116820180604052508101906111eb9190611d21565b61120757604051624a03c360e31b815260040160405180910390fd5b60115460405163dd0982a360e01b8152600481018490526001600160a01b039091169063dd0982a3906024016020604051808303816000875af1158015611252573d6000803e3d6000fd5b505050506040513d601f19601f820116820180604052508101906112769190611cf2565b60095561128161169e565b60095481526010546001906112a19082906301000000900460ff16611ed9565b60ff16600581106112b4576112b4611d0b565b01546020820152600060408201526112cb8161137a565b600b556011546040805163122db15360e01b815290516001600160a01b039092169163122db153916004808201926020929091908290030181865afa158015611318573d6000803e3d6000fd5b505050506040513d601f19601f8201168201806040525081019061133c9190611cf2565b600d8190556009546040517fa80928657383ff9d374f1409cf51e7460a64472b6baeb5ded1199830c15bae0192610f29928252602082015260400190565b6040516304b98e1d60e31b8152600090736397684f16b6bCe2f47D9C5d51DbE45c8d570937906325cc70e890610be0908590600401611ef2565b60065460ff16156113d8576040516342a2e18d60e01b815260040160405180910390fd5b6006805460ff19166001908117909155600c805482019055604080518082019091527f12817f4161f2f5ded33f26c55735a77e80e4f8975483c8c2704745128417f711815260006020820181905290918190819061143790859061065b565b601254604051631ffc735d60e01b81526004810183905293965091945092506001600160a01b031690631ffc735d906024016020604051808303816000875af1158015611488573d6000803e3d6000fd5b505050506040513d601f19601f820116820180604052508101906114ac9190611cf2565b507fe2067f06dd7b8159b21a5490f8663f6bb031d9b35ed6d298b5489674cb9cda4b8383604051610b98929190611f1a565b6114e661155c565b6001600160a01b0381166115505760405162461bcd60e51b815260206004820152602660248201527f4f776e61626c653a206e6577206f776e657220697320746865207a65726f206160448201526564647265737360d01b60648201526084015b60405180910390fd5b611559816115b6565b50565b6000546001600160a01b03163314610d325760405162461bcd60e51b815260206004820181905260248201527f4f776e61626c653a2063616c6c6572206973206e6f7420746865206f776e65726044820152606401611547565b600080546001600160a01b038381166001600160a01b0319831681178455604051919092169283917f8be0079c531659141344cd1fd0a4f28419497f9722a3daafe3b4186f6b6457e09190a35050565b604051806040016040528060008152602001611620611625565b905290565b604051806101400160405280600a906020820280368337509192915050565b6040518060a001604052806005906020820280368337509192915050565b60405180604001604052806002906020820280368337509192915050565b60405180608001604052806004906020820280368337509192915050565b60405180606001604052806003906020820280368337509192915050565b634e487b7160e01b600052604160045260246000fd5b6040805190810167ffffffffffffffff811182821017156116f5576116f56116bc565b60405290565b604051601f8201601f1916810167ffffffffffffffff81118282101715611724576117246116bc565b604052919050565b600082601f83011261173d57600080fd5b6117456116d2565b80604084018581111561175757600080fd5b845b81811015611771578035845260209384019301611759565b509095945050505050565b6000806060838503121561178f57600080fd5b611799848461172c565b946040939093013593505050565b8051825260208082015181840160005b600a811015610db1578251825291830191908301906001016117b7565b6101c081016117e382866117a7565b83516101608301526020909301516101808201526101a00152919050565b600061016080838503121561181557600080fd5b61181d6116d2565b915082358252602084603f85011261183457600080fd5b604051610140810181811067ffffffffffffffff82111715611858576118586116bc565b60405291840191808684111561186d57600080fd5b8286015b848110156118885780358252908301908301611871565b5050908301525092915050565b6000604082840312156118a757600080fd5b6118af6116d2565b9050813581526020820135602082015292915050565b6000806101a083850312156118d957600080fd5b6118e38484611801565b91506118f3846101608501611895565b90509250929050565b6000806040838503121561190f57600080fd5b50508035926020909101359150565b6000808284036101a081121561193357600080fd5b61193d8585611801565b9250604061015f198201121561195257600080fd5b50610160830190509250929050565b60006080828403121561197357600080fd5b82601f83011261198257600080fd5b6040516080810181811067ffffffffffffffff821117156119a5576119a56116bc565b6040528060808401858111156119ba57600080fd5b845b818110156119d45780358352602092830192016119bc565b509195945050505050565b600060208083850312156119f257600080fd5b823567ffffffffffffffff80821115611a0a57600080fd5b818501915085601f830112611a1e57600080fd5b813581811115611a3057611a306116bc565b8060051b9150611a418483016116fb565b8181529183018401918481019088841115611a5b57600080fd5b938501935b83851015611a7957843582529385019390850190611a60565b98975050505050505050565b600060408284031215611a9757600080fd5b610df2838361172c565b60008060008060408587031215611ab757600080fd5b843567ffffffffffffffff80821115611acf57600080fd5b818701915087601f830112611ae357600080fd5b813581811115611af257600080fd5b88602061016083028501011115611b0857600080fd5b602092830196509450908601359080821115611b2357600080fd5b818701915087601f830112611b3757600080fd5b813581811115611b4657600080fd5b8860208260061b8501011115611b5b57600080fd5b95989497505060200194505050565b600060808284031215611b7c57600080fd5b6040516060810181811067ffffffffffffffff82111715611b9f57611b9f6116bc565b604052611bac8484611895565b815260408301356020820152606083013560408201528091505092915050565b600060208284031215611bde57600080fd5b5035919050565b600060a08284031215611bf757600080fd5b82601f830112611c0657600080fd5b60405160a0810181811067ffffffffffffffff82111715611c2957611c296116bc565b6040528060a08401858111156119ba57600080fd5b600060608284031215611c5057600080fd5b82601f830112611c5f57600080fd5b6040516060810181811067ffffffffffffffff82111715611c8257611c826116bc565b6040528060608401858111156119ba57600080fd5b6001600160a01b038116811461155957600080fd5b600060208284031215611cbe57600080fd5b8135610df281611c97565b634e487b7160e01b600052601160045260246000fd5b81810381811115610c2157610c21611cc9565b600060208284031215611d0457600080fd5b5051919050565b634e487b7160e01b600052603260045260246000fd5b600060208284031215611d3357600080fd5b81518015158114610df257600080fd5b6101608101610c2182846117a7565b600060408284031215611d6457600080fd5b610df28383611895565b6101a08101611d7d82856117a7565b823561016083015260208301356101808301529392505050565b60808101818360005b6004811015611dbf578151835260209283019290910190600101611da0565b50505092915050565b815160009082906020808601845b83811015611df257815185529382019390820190600101611dd6565b50929695505050505050565b6000825160005b81811015611e1f5760208186018101518583015201611e05565b506000920191825250919050565b600082611e4a57634e487b7160e01b600052601260045260246000fd5b500690565b60408101818360005b6002811015611dbf578151835260209283019290910190600101611e58565b60006101608284031215611e8a57600080fd5b610df28383611801565b60a08101818360005b6005811015611dbf578151835260209283019290910190600101611e9d565b600060208284031215611ece57600080fd5b8151610df281611c97565b60ff8281168282160390811115610c2157610c21611cc9565b60608101818360005b6003811015611dbf578151835260209283019290910190600101611efb565b6101a08101611f2982856117a7565b82516101608301526020830151610180830152610df256fea26469706673582212204172a8d3e191cc04ccb8487326d5d5ae88b2ad179ba1309bc37535f39e74d70464736f6c63430008130033a2646970667358221220a414e18bfd9200065cdf43ca3bbb3a9380145dccf618ea8178c37e7fcd462f3a64736f6c63430008130033",
  "deployedBytecode": "0x60806040523480156200001157600080fd5b50600436106200003a5760003560e01c8063683f3dc3146200003f578063b43c4969146200005f575b600080fd5b62000048600a81565b60405160ff90911681526020015b60405180910390f35b6200007662000070366004620002f6565b6200008f565b6040516001600160a01b03909116815260200162000056565b60006604000000000000876020013510620000bd576040516302c3596560e51b815260040160405180910390fd5b6000620000d16040880160208901620003b2565b604051620000df90620002a8565b60ff9091168152602001604051809103906000f08015801562000106573d6000803e3d6000fd5b50905060006040518060600160405280876001600160a01b03168152602001836001600160a01b03168152602001866001600160a01b0316815250905060008a8a8a8a856040516200015890620002b6565b62000168959493929190620003d7565b604051809103906000f08015801562000185573d6000803e3d6000fd5b5060405163f2fde38b60e01b81526001600160a01b0380831660048301529192509084169063f2fde38b90602401600060405180830381600087803b158015620001ce57600080fd5b505af1158015620001e3573d6000803e3d6000fd5b50505050806001600160a01b031663e1c7392a6040518163ffffffff1660e01b8152600401600060405180830381600087803b1580156200022357600080fd5b505af115801562000238573d6000803e3d6000fd5b505060405163f2fde38b60e01b81526001600160a01b0388811660048301528416925063f2fde38b9150602401600060405180830381600087803b1580156200028057600080fd5b505af115801562000295573d6000803e3d6000fd5b50929d9c50505050505050505050505050565b61231e806200049783390190565b6125ac80620027b583390190565b600060408284031215620002d757600080fd5b50919050565b6001600160a01b0381168114620002f357600080fd5b50565b60008060008060008060008789036101808112156200031457600080fd5b88359750620003278a60208b01620002c4565b96506080605f19820112156200033c57600080fd5b50606088019450620003528960e08a01620002c4565b93506101208801356200036581620002dd565b92506101408801356200037881620002dd565b91506101608801356200038b81620002dd565b8091505092959891949750929550565b803560ff81168114620003ad57600080fd5b919050565b600060208284031215620003c557600080fd5b620003d0826200039b565b9392505050565b8581526101808101620003f7602083018780358252602090810135910152565b60ff62000404866200039b565b16606083015260ff6200041a602087016200039b565b16608083015260ff62000430604087016200039b565b1660a083015260ff62000446606087016200039b565b1660c0830152833560e0830152602084013561010083015282516001600160a01b03908116610120840152602084015181166101408401526040909301519092166101609091015294935050505056fe60e06040523480156200001157600080fd5b506040516200231e3803806200231e833981016040819052620000349162000617565b808060056200004333620005c7565b81600003620000655760405163682e504160e11b815260040160405180910390fd5b60208211156200009657604051637ccdcc9760e11b8152600481018390526020602482015260440160405180910390fd5b80600214158015620000a9575080600514155b15620000c857604051636f7b6c0360e01b815260040160405180910390fd5b6000805460ff60a01b191660028314600160a01b02179055608082905260a0819052620000f6828262000746565b60c05250507f12817f4161f2f5ded33f26c55735a77e80e4f8975483c8c2704745128417f7116101725550507f1c8de1edeabc24fc4c1595acaabb70be9b70f351d58c6fa338e1e9a994413bfb610173557f22fcda488c14b34fc60eb073fbe92fe10793e2ab14682e0f057332ddbef3d55c610174557f2db474db7c7212646cb15c6177d87be30711e6c04f1139d8e495ef1d1d998227610175557efde404053ec39a19f6ac347121a2264815dda84f910a388cb372e967a5d08c610176557f0723792ffab6ec6cfb3ece1509b9b4fb07e5bdb2299d1538e6e1db916f90cf89610177557f2a4392ec4e3d1811cd6a950cc865ee6f2342910a6551c5dce38cb995576c7c70610178557f1dead4c14f75e9d8449c80b648dcd4694c2ee50da2ba16e5e438f0d77ab02e34610179557f124c53ce0953fffb7ab5e3c143df6cd48ba747d3959fcb8086405d763ed5455061017a557f02bae19605746a8cd3f0927b2c01630f36f4d1bab9216ca839833e7ff6efa20661017b557f1f8375099becf17173d457d0d07bfb74c7067df1143b5ad987046e8e66817bc961017c557f0e13e954d61bb3fa3b03e7d136ca909b610fa2ca4443d920d94d16684f2b83d461017d557f1416ef2fc4f88fcfc4f9eb12f8e214b1c3e31c6c10ece9cfa51f078a3bbf345761017e557f032f915ff71e198a7955d2697249f40fb94c65812ed24e670c9700f52fdf6e0e61017f557f08bfebf4b3ddb0f8c51dd40193f5996da9f3d799ee0d8beb6be4038132df60b4610180557f065ac498cf4a5acaeb3b6cee826da9f834c961fa39feff6ae925b90dff79b613610181557f2e72c628101a93201b912a3e3fe96d39b0a9076ec39b7935a015c59bb32b8a2a610182557f19bba68e7b9da1e6ec42e52d7ab2adaf3b6a5521b1a454ec70f62e0ab702c085610183557f0de1f72745a5af2a34cac412e00eb6c8b5db1f3b52fa1bff88076c2726b83b08610184557f2e8f152603b2fac10d6a14c841327c23c502537367ccb1e42fab9a3bd9db2a8d610185557f14e16c3e0dcfd7e621a32627ebf37f6c0afb4467d34c7b7aeffded11769dec85610186557f0be1e62127948b4805c85a1d836574f0892ca6473fcde98f3fd1781248a9768f610187557f0930288fbd7c849197c8372f1dd8f9087f8a03f09b9cd904a469c15ef6b1b515610188557f231cac34e215e3f404d2fcfb79e0705deeb3d40978f0ee31072f6cbc1b579e33610189557f2e0e3cd2718ac7199b81dc14e841de40a9536b7ffe95fa1fc9c6b799e43e2c9761018a557f0718452506f0a232e98966d84b1a4675a66bd80263a2dc58bdac873825752fc361018b557f162d4ed998307d6e132edbf5c11f62f53d4636aa10cb3c2244c2bf5577168c3761018c557f247d6a5544a8f295a894ae77c7efcdcbf52e3bf4e5d0c0d2f40557a61d44984861018d557f0b8de3868471f109e91670daca698dba917d1c5535821f33aa9598d1db8e3d1961018e557f29851997020f527c92e20f030d232b81d334144a641e6a8866b46dd925005bbb61018f557f1a9cfcbe29a2b6503a03049727c0bca3111afd62f2836f392080321d1b4ef642610190557f1aa3ead91fa89cc1d6cb1d0eb76a27190c6abfdd3265d6d0a1e5c58feddaddf6610191557f0702fc26a7d367e6677efefd95204a7e00144c2fc7dbc2a581aa00d99f51f081610192556200075b565b600080546001600160a01b038381166001600160a01b0319831681178455604051919092169283917f8be0079c531659141344cd1fd0a4f28419497f9722a3daafe3b4186f6b6457e09190a35050565b6000602082840312156200062a57600080fd5b5051919050565b634e487b7160e01b600052601160045260246000fd5b600181815b80851115620006885781600019048211156200066c576200066c62000631565b808516156200067a57918102915b93841c93908002906200064c565b509250929050565b600082620006a15750600162000740565b81620006b05750600062000740565b8160018114620006c95760028114620006d457620006f4565b600191505062000740565b60ff841115620006e857620006e862000631565b50506001821b62000740565b5060208310610133831016604e8410600b841016171562000719575081810a62000740565b62000725838362000647565b80600019048211156200073c576200073c62000631565b0290505b92915050565b600062000754838362000690565b9392505050565b60805160a05160c051611b1562000809600039600081816103ea01528181610a2501528181610ac201528181610c7f0152610d820152600081816103230152818161056e015281816106e401528181610bb401528181610f2b0152818161109f015261130001526000818161041a0152818161047b0152818161054401528181610bed01528181610cb801528181610d0201528181610ecc01528181610f82015261123b0152611b156000f3fe608060405234801561001057600080fd5b50600436106101585760003560e01c806381d6a24a116100c3578063c00bdbcc1161007c578063c00bdbcc146102b8578063c15da65b146102cb578063d9c55ce1146102de578063dda89a6e146102e6578063e93fb4d4146102f0578063f2fde38b1461030357600080fd5b806381d6a24a146102455780638da5cb5b146102615780639cfced971461027c578063a27154ba1461028f578063b6a64acd14610297578063bea140b3146102a557600080fd5b806358bfc3791161011557806358bfc379146101cc5780635bb93995146101df5780635bf1fa4d146101f257806362a361bb1461020557806369e7c58614610218578063715018a61461023b57600080fd5b80631b9b8aa71461015d5780631ffc735d1461018357806324a47aeb146101965780633bfa6fce146101a95780633dfb88b2146101b15780633e1a8cc1146101c4575b600080fd5b61017061016b366004611522565b610316565b6040519081526020015b60405180910390f35b610170610191366004611522565b610399565b6101706101a4366004611522565b6104c7565b6101706106d8565b6101706101bf366004611582565b610723565b6101706107a4565b6101706101da366004611600565b6107d3565b6101706101ed3660046116a6565b61086d565b6101706102003660046116a6565b610892565b6101706102133660046116c8565b610931565b61016e5461022b90610100900460ff1681565b604051901515815260200161017a565b61024361096b565b005b610170546001546040805192835260208301919091520161017a565b6000546040516001600160a01b03909116815260200161017a565b61017061028a366004611723565b61097f565b610170602081565b61016e5461022b9060ff1681565b6101706102b336600461177c565b6109b9565b6102436102c6366004611522565b6109f3565b6102436102d9366004611522565b610a6f565b610243610c75565b6101706101715481565b6101706102fe366004611522565b610dbf565b6102436103113660046117d5565b610dfa565b61017154600090610347837f00000000000000000000000000000000000000000000000000000000000000006118ff565b101561037d5761017154604051627289df60e61b8152610374918491600401918252602082015260400190565b60405180910390fd5b61014d82602181106103915761039161190b565b015492915050565b60006103a3610e70565b50610171546103b3826000610eca565b6103be816001611921565b610171556103cf61014d6000611487565b600061016f5561016e805460ff191690556101715461040f907f000000000000000000000000000000000000000000000000000000000000000090611934565b6000036104c25760027f0000000000000000000000000000000000000000000000000000000000000000602181106104495761044961190b565b600402015460018054600090815261014c602052604081209290925580549161047183611956565b90915550600290507f0000000000000000000000000000000000000000000000000000000000000000602181106104aa576104aa61190b565b6004020160008091018190556104c290608690611487565b919050565b60006104d1610e70565b816000036104f257604051630543d40760e11b815260040160405180910390fd5b61016e5460ff1661051657604051631e596e4360e11b815260040160405180910390fd5b602082111561054257604051632cd31ae960e01b81526004810183905260206024820152604401610374565b7f00000000000000000000000000000000000000000000000000000000000000005b61017154610592827f00000000000000000000000000000000000000000000000000000000000000006118ff565b10156105aa57806105a281611956565b915050610564565b808310156105d457604051627289df60e61b81526004810184905260248101829052604401610374565b8083036106105761016f5461014d84602181106105f3576105f361190b565b0155505061016e805461ff00191661010017905561016f54919050565b61016f549150805b838110156106aa57600061062b8261100b565b600054909150600160a01b900460ff161561066357610648611496565b8481526020810182905261065b81610931565b945050610697565b61066b6114b4565b848152602081018290526040810182905260608101829052608081018290526106938161097f565b9450505b50806106a281611956565b915050610618565b508161014d84602181106106c0576106c061190b565b015561016e805461ff00191661010017905550919050565b60015b600154610708827f00000000000000000000000000000000000000000000000000000000000000006118ff565b1015610720578061071881611956565b9150506106db565b90565b60405163248f667760e01b815260009073__$e61c65d9562aef5fa6ab22c0f787cf1e30$__9063248f66779061075d90859060040161196f565b602060405180830381865af415801561077a573d6000803e3d6000fd5b505050506040513d601f19601f8201168201806040525081019061079e91906119a0565b92915050565b61016e5460009060ff166107cb57604051631e596e4360e11b815260040160405180910390fd5b5061016f5490565b60007f30644e72e131a029b85045b68181585d2833e84879b9709143e1f593f000000160028360405160200161080991906119b9565b60408051601f1981840301815290829052610823916119ef565b602060405180830381855afa158015610840573d6000803e3d6000fd5b5050506040513d601f19601f8201168201806040525081019061086391906119a0565b61079e9190611934565b6000610877611496565b8381526020810183905261088a81610931565b949350505050565b600061089c6114b4565b600284602181106108af576108af61190b565b60040201548152600284602181106108c9576108c961190b565b60040201600101548160016020020152600284602181106108ec576108ec61190b565b600402016002015481600260200201526002846021811061090f5761090f61190b565b6004020160030154816003602002015282816004602002015261088a8161097f565b6040516314d2f97b60e11b815260009073__$1540826e134b1b69b7091c82576ee3aadd$__906329a5f2f69061075d908590600401611a1e565b610973610e70565b61097d6000611021565b565b604051630926f44b60e31b815260009073__$46fbdf6658faf65265971bdad66851b86c$__90634937a2589061075d908590600401611a46565b6040516304b98e1d60e31b815260009073__$fa059fb1da6d850ca47ea49359bfe89f78$__906325cc70e89061075d908590600401611a6e565b6109fb610e70565b60018054600090815261014c6020526040812083905581549190610a1e83611956565b91905055507f00000000000000000000000000000000000000000000000000000000000000006101716000828254610a569190611921565b9091555050600061016f555061016e805460ff19169055565b610a77610e70565b61016e5460ff1615610a9c57604051630d36aec160e01b815260040160405180910390fd5b61017154600003610ac0576040516316a0341160e11b815260040160405180910390fd5b7f000000000000000000000000000000000000000000000000000000000000000061017154610aef9190611934565b15610afc57610afc610c75565b600154600103610b2557610b106000610dbf565b61016f5561016e805460ff1916600117905550565b6000610b2f6106d8565b610170549091506000905b600154811015610bab578315801590610b5257508382145b15610b5d5750505050565b610b74610b6c61017054610dbf565b600085611071565b6101708054906000610b8583611956565b91905055508180610b9590611956565b9250508080610ba390611956565b915050610b3a565b506000610bd8837f00000000000000000000000000000000000000000000000000000000000000006118ff565b90506001546101705403610c41576000610c117f000000000000000000000000000000000000000000000000000000000000000061100b565b6001549091505b82811015610c3e57610c2c82600087611071565b80610c3681611956565b915050610c18565b50505b60a78360218110610c5457610c5461190b565b600402016000015461016f55505061016e805460ff19166001179055505b50565b610c7d610e70565b7f000000000000000000000000000000000000000000000000000000000000000061017154610cac9190611934565b600003610cf457610cdc7f000000000000000000000000000000000000000000000000000000000000000061100b565b600154600090815261014c6020526040902055610d65565b610cfe6000611239565b60027f000000000000000000000000000000000000000000000000000000000000000060218110610d3157610d3161190b565b6004020154600154600090815261014c6020526040812091909155610d58906002906114d2565b610d6561014d6000611487565b60006001546001610d769190611921565b60018190559050610da77f000000000000000000000000000000000000000000000000000000000000000082611a96565b6101715550600061016f5561016e805460ff19169055565b60008160015411610de65760405163042a2e7160e11b815260048101839052602401610374565b50600090815261014c602052604090205490565b610e02610e70565b6001600160a01b038116610e675760405162461bcd60e51b815260206004820152602660248201527f4f776e61626c653a206e6577206f776e657220697320746865207a65726f206160448201526564647265737360d01b6064820152608401610374565b610c7281611021565b6000546001600160a01b0316331461097d5760405162461bcd60e51b815260206004820181905260248201527f4f776e61626c653a2063616c6c6572206973206e6f7420746865206f776e65726044820152606401610374565b7f0000000000000000000000000000000000000000000000000000000000000000811115610f0b5760405163d1459f7960e01b815260040160405180910390fd5b600060868260218110610f2057610f2061190b565b01549050610f4f60017f0000000000000000000000000000000000000000000000000000000000000000611aad565b8114610fd4578260028360218110610f6957610f6961190b565b600402018260048110610f7e57610f7e61190b565b01557f00000000000000000000000000000000000000000000000000000000000000008214610fcf5760868260218110610fba57610fba61190b565b018054906000610fc983611956565b91905055505b505050565b610fde82846113a5565b925060868260218110610ff357610ff361190b565b60009101558161100281611956565b92505050610f0b565b600061017282602181106103915761039161190b565b600080546001600160a01b038381166001600160a01b0319831681178455604051919092169283917f8be0079c531659141344cd1fd0a4f28419497f9722a3daafe3b4186f6b6457e09190a35050565b8082111561107e57505050565b600061012b83602181106110945761109461190b565b015490506110c360017f0000000000000000000000000000000000000000000000000000000000000000611aad565b8114611121578360a784602181106110dd576110dd61190b565b6004020182600481106110f2576110f261190b565b015561012b83602181106111085761110861190b565b01805490600061111783611956565b9190505550611233565b60008054600160a01b900460ff161561116e5761113c611496565b60a7856021811061114f5761114f61190b565b600402015481526020810186905261116681610931565b915050611203565b6111766114b4565b60005b838160ff1610156111dd5760a786602181106111975761119761190b565b600402018160ff16600481106111af576111af61190b565b0154828260ff16600581106111c6576111c661190b565b6020020152806111d581611ac0565b915050611179565b50858184600581106111f1576111f161190b565b60200201526111ff8161097f565b9150505b61012b84602181106112175761121761190b565b60009101556112318161122b866001611921565b85611071565b505b50505050565b7f0000000000000000000000000000000000000000000000000000000000000000811015610c72576000608682602181106112765761127661190b565b01549050801561137a57600061128a6114b4565b60006112958561100b565b905060005b848160ff1610156112fe57600286602181106112b8576112b861190b565b600402018160ff16600481106112d0576112d061190b565b0154838260ff16600581106112e7576112e761190b565b6020020152806112f681611ac0565b91505061129a565b7f00000000000000000000000000000000000000000000000000000000000000008160ff1610156113565781838260ff166005811061133f5761133f61190b565b60200201528061134e81611ac0565b9150506112fe565b61135f8361097f565b935061137584611370886001611921565b610eca565b505050505b6086826021811061138d5761138d61190b565b60009101558161139c81611956565b92505050611239565b60006113af6114b4565b600284602181106113c2576113c261190b565b60040201548152600284602181106113dc576113dc61190b565b60040201600101548160016020020152600284602181106113ff576113ff61190b565b60040201600201548160026020020152600284602181106114225761142261190b565b600402016003015481600360200201528281600460200201526114448161097f565b9150600284602181106114595761145961190b565b60040201600061148091905060008155600101600081556001016000815560010160009055565b5092915050565b50610c729060218101906114e1565b60405180604001604052806002906020820280368337509192915050565b6040518060a001604052806005906020820280368337509192915050565b50610c729060848101906114fa565b5b808211156114f657600081556001016114e2565b5090565b808211156114f6576000808255600182018190556002820181905560038201556004016114fa565b60006020828403121561153457600080fd5b5035919050565b634e487b7160e01b600052604160045260246000fd5b604051601f8201601f1916810167ffffffffffffffff8111828210171561157a5761157a61153b565b604052919050565b60006080828403121561159457600080fd5b82601f8301126115a357600080fd5b6040516080810181811067ffffffffffffffff821117156115c6576115c661153b565b6040528060808401858111156115db57600080fd5b845b818110156115f55780358352602092830192016115dd565b509195945050505050565b6000602080838503121561161357600080fd5b823567ffffffffffffffff8082111561162b57600080fd5b818501915085601f83011261163f57600080fd5b8135818111156116515761165161153b565b8060051b9150611662848301611551565b818152918301840191848101908884111561167c57600080fd5b938501935b8385101561169a57843582529385019390850190611681565b98975050505050505050565b600080604083850312156116b957600080fd5b50508035926020909101359150565b6000604082840312156116da57600080fd5b82601f8301126116e957600080fd5b6040516040810181811067ffffffffffffffff8211171561170c5761170c61153b565b80604052508060408401858111156115db57600080fd5b600060a0828403121561173557600080fd5b82601f83011261174457600080fd5b60405160a0810181811067ffffffffffffffff821117156117675761176761153b565b6040528060a08401858111156115db57600080fd5b60006060828403121561178e57600080fd5b82601f83011261179d57600080fd5b6040516060810181811067ffffffffffffffff821117156117c0576117c061153b565b6040528060608401858111156115db57600080fd5b6000602082840312156117e757600080fd5b81356001600160a01b03811681146117fe57600080fd5b9392505050565b634e487b7160e01b600052601160045260246000fd5b600181815b8085111561185657816000190482111561183c5761183c611805565b8085161561184957918102915b93841c9390800290611820565b509250929050565b60008261186d5750600161079e565b8161187a5750600061079e565b8160018114611890576002811461189a576118b6565b600191505061079e565b60ff8411156118ab576118ab611805565b50506001821b61079e565b5060208310610133831016604e8410600b84101617156118d9575081810a61079e565b6118e3838361181b565b80600019048211156118f7576118f7611805565b029392505050565b60006117fe838361185e565b634e487b7160e01b600052603260045260246000fd5b8082018082111561079e5761079e611805565b60008261195157634e487b7160e01b600052601260045260246000fd5b500690565b60006001820161196857611968611805565b5060010190565b60808101818360005b6004811015611997578151835260209283019290910190600101611978565b50505092915050565b6000602082840312156119b257600080fd5b5051919050565b815160009082906020808601845b838110156119e3578151855293820193908201906001016119c7565b50929695505050505050565b6000825160005b81811015611a1057602081860181015185830152016119f6565b506000920191825250919050565b60408101818360005b6002811015611997578151835260209283019290910190600101611a27565b60a08101818360005b6005811015611997578151835260209283019290910190600101611a4f565b60608101818360005b6003811015611997578151835260209283019290910190600101611a77565b808202811582820484141761079e5761079e611805565b8181038181111561079e5761079e611805565b600060ff821660ff8103611ad657611ad6611805565b6001019291505056fea2646970667358221220c029a4f718a97de8e420cb66eeb63348c182e9fec48fac0dde33ddb1b04025ba64736f6c6343000813003360e0604052604051620025ac380380620025ac83398101604081905262000026916200044f565b62000031336200023c565b7f0ad794e7fb50257e0edc93fe4616c69ea691e7a6c653333b6a5b507d798947276001557ec31c90221285dc87ee66daadc19f64f922e45a613f4f5429d74ddc7d66e0236002557f2afdf0e1d10d07d0df3a8481202bf2595108195e34d4ccb88742641c576aa77d6003557f177bbb5acaafc1f1deb73b8ae33f97132089ab84039048a096e202b1f8c429106004557f25c1a155f21ae70ca3b8bdb27961efdee58bdafff83274c18dd37d0f0a8bfbb560055581517f30644e72e131a029b85045b68181585d2833e84879b9709143e1f593f00000011115806200013957507f30644e72e131a029b85045b68181585d2833e84879b9709143e1f593f0000001826020015110155b1562000158576040516354be831760e11b815260040160405180910390fd5b81516007819055602083015160088190556200017591906200028c565b6080528051601180546001600160a01b039283166001600160a01b03199182161790915560208084015160128054918516918416919091179055604093840151601380549190941692169190911790915560c0959095528351600e5592840151600f5550805160108054948301519383015160609093015160ff90811663010000000263ff0000001994821662010000029490941663ffff0000199582166101000261ffff1990971691909316179490941792909216919091171790554260a052620005b1565b600080546001600160a01b038381166001600160a01b0319831681178455604051919092169283917f8be0079c531659141344cd1fd0a4f28419497f9722a3daafe3b4186f6b6457e09190a35050565b6000620002986200033b565b83815260208101839052620002ad81620002b5565b949350505050565b6040516314d2f97b60e11b815260009073__$1540826e134b1b69b7091c82576ee3aadd$__906329a5f2f690620002f190859060040162000564565b602060405180830381865af41580156200030f573d6000803e3d6000fd5b505050506040513d601f19601f8201168201806040525081019062000335919062000597565b92915050565b60405180604001604052806002906020820280368337509192915050565b604051608081016001600160401b03811182821017156200038a57634e487b7160e01b600052604160045260246000fd5b60405290565b604051606081016001600160401b03811182821017156200038a57634e487b7160e01b600052604160045260246000fd5b600060408284031215620003d457600080fd5b604080519081016001600160401b03811182821017156200040557634e487b7160e01b600052604160045260246000fd5b604052825181526020928301519281019290925250919050565b805160ff811681146200043157600080fd5b919050565b6001600160a01b03811681146200044c57600080fd5b50565b60008060008060008587036101808112156200046a57600080fd5b865195506200047d8860208901620003c1565b94506080605f19820112156200049257600080fd5b6200049c62000359565b620004aa606089016200041f565b8152620004ba608089016200041f565b6020820152620004cd60a089016200041f565b6040820152620004e060c089016200041f565b60608201529350620004f68860e08901620003c1565b9250606061011f19820112156200050c57600080fd5b506200051762000390565b610120870151620005288162000436565b81526101408701516200053b8162000436565b6020820152610160870151620005518162000436565b6040820152949793965091945092919050565b60408101818360005b60028110156200058e5781518352602092830192909101906001016200056d565b50505092915050565b600060208284031215620005aa57600080fd5b5051919050565b60805160a05160c051611f7762000635600039600081816102e70152818161056301528181610812015281816109ff01528181610e3101528181610f6e01526110ad0152600081816102c60152818161053a015281816107e9015281816109d601528181610e0801528181610f450152611084015260006103b80152611f776000f3fe608060405234801561001057600080fd5b50600436106101fa5760003560e01c8063715018a61161011a578063ac98e5df116100ad578063bea140b31161007c578063bea140b3146104eb578063c17268d9146104fe578063e1c7392a14610507578063f2fde38b1461050f578063fba630f21461052257600080fd5b8063ac98e5df1461041b578063ae93a21214610471578063b5f38c8114610484578063bc14ee2b146104a157600080fd5b80638aa0ba92116100e95780638aa0ba92146103b35780638da5cb5b146103da5780639c971729146103f55780639cfced971461040857600080fd5b8063715018a6146103725780637296aaea1461037a5780637d0a81c81461038d57806386f3c3f7146103a057600080fd5b80633dfb88b2116101925780635bb93995116101615780635bb93995146103295780635d5909dd1461033c57806362a361bb14610345578063683f3dc31461035857600080fd5b80633dfb88b2146102b15780634909229f146102c45780634f367f0f1461030b57806358bfc3791461031657600080fd5b8063167fd483116101ce578063167fd4831461026a578063184ff47f1461027d57806331e766a514610290578063394b78a21461029e57600080fd5b8062329f2f146101ff5780630396a0ce1461020957806306912d3c146102315780630f4cf69214610253575b600080fd5b61020761052b565b005b600e54600f54610217919082565b604080519283526020830191909152015b60405180910390f35b61024461023f36600461177c565b61065b565b604051610228939291906117d4565b61025c600c5481565b604051908152602001610228565b61025c6102783660046118c5565b610709565b61020761028b3660046118fc565b6107e2565b600754600854610217919082565b6102076102ac36600461191e565b6109cf565b61025c6102bf366004611961565b610ba6565b7f00000000000000000000000000000000000000000000000000000000000000007f0000000000000000000000000000000000000000000000000000000000000000610217565b600d54600c54610217565b61025c6103243660046119df565b610c27565b61025c6103373660046118fc565b610cc1565b61025c600d5481565b61025c610353366004611a85565b610ce6565b610360600a81565b60405160ff9091168152602001610228565b610207610d20565b610207610388366004611aa1565b610d34565b61025c61039b366004611b6a565b610db9565b6102076103ae3660046118fc565b610df9565b61025c7f000000000000000000000000000000000000000000000000000000000000000081565b6000546040516001600160a01b039091168152602001610228565b610207610403366004611bcc565b610f36565b61025c610416366004611be5565b61103b565b6010546104449060ff808216916101008104821691620100008204811691630100000090041684565b6040805160ff95861681529385166020850152918416918301919091529091166060820152608001610228565b61020761047f366004611bcc565b611075565b600a546104919060ff1681565b6040519015158152602001610228565b6011546012546013546104c1926001600160a01b03908116928116911683565b604080516001600160a01b0394851681529284166020840152921691810191909152606001610228565b61025c6104f9366004611c3e565b61137a565b61025c600b5481565b6102076113b4565b61020761051d366004611cac565b6114de565b61025c60095481565b61053361155c565b600061055f7f000000000000000000000000000000000000000000000000000000000000000042611cdf565b90507f000000000000000000000000000000000000000000000000000000000000000081116105a157604051630931513d60e11b815260040160405180910390fd5b6012546010546040516324a47aeb60e01b81526201000090910460ff1660048201526000916001600160a01b0316906324a47aeb906024016020604051808303816000875af11580156105f8573d6000803e3d6000fd5b505050506040513d601f19601f8201168201806040525081019061061c9190611cf2565b90507fc5624680ab5d50c84507f9e0dc2032163de2bda906ab8a661a53dd4d43bd5dc78160405161064f91815260200190565b60405180910390a15050565b610663611606565b60408051808201909152600080825260208201526000610681611625565b85518152602080870151828201526040805180820182527f171e826ad4a870fd925e0bf0e87884e70e080879c2205ef10114f28a3b6f6dd781527f2bd407d897fbbca9f88adfd2d15252e69de8c1564eb4d3d27162e259172f1a1d818401528151808301909252878252918101839052945092506106ff8484610709565b9150509250925092565b6000610713611644565b602084810180515183528051820151918301919091528051604090810151908301528051606090810151908301525160809081015190820152610754611644565b6020858101805160a0908101518452815160c0015184840152815160e001516040808601919091528251610100015160608601529151610120015160808501528151908101909152865181526107d99181016107af8561103b565b81526020016107bd8461103b565b815260200186600001518152602001866020015181525061103b565b95945050505050565b600061080e7f000000000000000000000000000000000000000000000000000000000000000042611cdf565b90507f000000000000000000000000000000000000000000000000000000000000000081106108505760405163148fb9a960e31b815260040160405180910390fd5b600e54600c541061087457604051631ec0b2f760e01b815260040160405180910390fd5b600c805460010190556013546040516323b872dd60e01b8152336004820152306024820152604481018490526001600160a01b03909116906323b872dd906064016020604051808303816000875af11580156108d4573d6000803e3d6000fd5b505050506040513d601f19601f820116820180604052508101906108f89190611d21565b50604080518082019091528381526020810183905260008061091b83600261065b565b601254604051631ffc735d60e01b8152600481018390529395509093506001600160a01b031691631ffc735d91506024016020604051808303816000875af115801561096b573d6000803e3d6000fd5b505050506040513d601f19601f8201168201806040525081019061098f9190611cf2565b507f935afc7bb7cc33eb3e24e20dcfc75f5b21fa58e9c82cca06435238efaf9a3a58826040516109bf9190611d43565b60405180910390a1505050505050565b60006109fb7f000000000000000000000000000000000000000000000000000000000000000042611cdf565b90507f00000000000000000000000000000000000000000000000000000000000000008110610a3d5760405163148fb9a960e31b815260040160405180910390fd5b600e54600c5410610a6157604051631ec0b2f760e01b815260040160405180910390fd5b7f30644e72e131a029b85045b68181585d2833e84879b9709143e1f593f00000018235101580610ab557507f30644e72e131a029b85045b68181585d2833e84879b9709143e1f593f0000001826020013510155b15610ad3576040516354be831760e11b815260040160405180910390fd5b600c8054600190810190915583526000610af68461027836869003860186611d52565b601254604051631ffc735d60e01b8152600481018390529192506001600160a01b031690631ffc735d906024016020604051808303816000875af1158015610b42573d6000803e3d6000fd5b505050506040513d601f19601f82011682018060405250810190610b669190611cf2565b507fe2067f06dd7b8159b21a5490f8663f6bb031d9b35ed6d298b5489674cb9cda4b8484604051610b98929190611d6e565b60405180910390a150505050565b60405163248f667760e01b815260009073__$e61c65d9562aef5fa6ab22c0f787cf1e30$__9063248f667790610be0908590600401611d97565b602060405180830381865af4158015610bfd573d6000803e3d6000fd5b505050506040513d601f19601f82011682018060405250810190610c219190611cf2565b92915050565b60007f30644e72e131a029b85045b68181585d2833e84879b9709143e1f593f0000001600283604051602001610c5d9190611dc8565b60408051601f1981840301815290829052610c7791611dfe565b602060405180830381855afa158015610c94573d6000803e3d6000fd5b5050506040513d601f19601f82011682018060405250810190610cb79190611cf2565b610c219190611e2d565b6000610ccb611662565b83815260208101839052610cde81610ce6565b949350505050565b6040516314d2f97b60e11b815260009073__$1540826e134b1b69b7091c82576ee3aadd$__906329a5f2f690610be0908590600401611e4f565b610d2861155c565b610d3260006115b6565b565b828114610d545760405163ca3487f760e01b815260040160405180910390fd5b8260005b81811015610db157610da9868683818110610d7557610d75611d0b565b90506101600201803603810190610d8c9190611e77565b858584818110610d9e57610d9e611d0b565b9050604002016109cf565b600101610d58565b505050505050565b6000610dc3611680565b8251518152825160209081015181830152830151816002602002015260408301516060820152610df281610ba6565b9392505050565b610e0161155c565b6000610e2d7f000000000000000000000000000000000000000000000000000000000000000042611cdf565b90507f00000000000000000000000000000000000000000000000000000000000000008111610e6f57604051630931513d60e11b815260040160405180910390fd5b600a5460ff1615610e935760405163084ef7b960e41b815260040160405180910390fd5b60115460405163cfa1fa0360e01b815260048101859052602481018490526001600160a01b039091169063cfa1fa0390604401600060405180830381600087803b158015610ee057600080fd5b505af1158015610ef4573d6000803e3d6000fd5b505050507fbe5eae95ff0a9a2779506ae62da06dda1e349311d3f2b6ceb990ea42b6a5f20b83604051610f2991815260200190565b60405180910390a1505050565b610f3e61155c565b6000610f6a7f000000000000000000000000000000000000000000000000000000000000000042611cdf565b90507f00000000000000000000000000000000000000000000000000000000000000008111610fac57604051630931513d60e11b815260040160405180910390fd5b60125460405163c15da65b60e01b8152600481018490526001600160a01b039091169063c15da65b90602401600060405180830381600087803b158015610ff257600080fd5b505af1158015611006573d6000803e3d6000fd5b505050507f1245b881cb30fdad22b2f9fde2d5c2a3605bbdf272d5e8a2235d8c9e81aba2ce8260405161064f91815260200190565b604051630926f44b60e31b815260009073__$46fbdf6658faf65265971bdad66851b86c$__90634937a25890610be0908590600401611e94565b61107d61155c565b60006110a97f000000000000000000000000000000000000000000000000000000000000000042611cdf565b90507f000000000000000000000000000000000000000000000000000000000000000081116110eb57604051630931513d60e11b815260040160405180910390fd5b600a5460ff161561110f5760405163084ef7b960e41b815260040160405180910390fd5b600a805460ff1916600117905560115460408051630c0775ff60e31b815290516001600160a01b039092169163603baff8916004808201926020929091908290030181865afa158015611166573d6000803e3d6000fd5b505050506040513d601f19601f8201168201806040525081019061118a9190611ebc565b6001600160a01b031663b6a64acd6040518163ffffffff1660e01b8152600401602060405180830381865afa1580156111c7573d6000803e3d6000fd5b505050506040513d601f19601f820116820180604052508101906111eb9190611d21565b61120757604051624a03c360e31b815260040160405180910390fd5b60115460405163dd0982a360e01b8152600481018490526001600160a01b039091169063dd0982a3906024016020604051808303816000875af1158015611252573d6000803e3d6000fd5b505050506040513d601f19601f820116820180604052508101906112769190611cf2565b60095561128161169e565b60095481526010546001906112a19082906301000000900460ff16611ed9565b60ff16600581106112b4576112b4611d0b565b01546020820152600060408201526112cb8161137a565b600b556011546040805163122db15360e01b815290516001600160a01b039092169163122db153916004808201926020929091908290030181865afa158015611318573d6000803e3d6000fd5b505050506040513d601f19601f8201168201806040525081019061133c9190611cf2565b600d8190556009546040517fa80928657383ff9d374f1409cf51e7460a64472b6baeb5ded1199830c15bae0192610f29928252602082015260400190565b6040516304b98e1d60e31b815260009073__$fa059fb1da6d850ca47ea49359bfe89f78$__906325cc70e890610be0908590600401611ef2565b60065460ff16156113d8576040516342a2e18d60e01b815260040160405180910390fd5b6006805460ff19166001908117909155600c805482019055604080518082019091527f12817f4161f2f5ded33f26c55735a77e80e4f8975483c8c2704745128417f711815260006020820181905290918190819061143790859061065b565b601254604051631ffc735d60e01b81526004810183905293965091945092506001600160a01b031690631ffc735d906024016020604051808303816000875af1158015611488573d6000803e3d6000fd5b505050506040513d601f19601f820116820180604052508101906114ac9190611cf2565b507fe2067f06dd7b8159b21a5490f8663f6bb031d9b35ed6d298b5489674cb9cda4b8383604051610b98929190611f1a565b6114e661155c565b6001600160a01b0381166115505760405162461bcd60e51b815260206004820152602660248201527f4f776e61626c653a206e6577206f776e657220697320746865207a65726f206160448201526564647265737360d01b60648201526084015b60405180910390fd5b611559816115b6565b50565b6000546001600160a01b03163314610d325760405162461bcd60e51b815260206004820181905260248201527f4f776e61626c653a2063616c6c6572206973206e6f7420746865206f776e65726044820152606401611547565b600080546001600160a01b038381166001600160a01b0319831681178455604051919092169283917f8be0079c531659141344cd1fd0a4f28419497f9722a3daafe3b4186f6b6457e09190a35050565b604051806040016040528060008152602001611620611625565b905290565b604051806101400160405280600a906020820280368337509192915050565b6040518060a001604052806005906020820280368337509192915050565b60405180604001604052806002906020820280368337509192915050565b60405180608001604052806004906020820280368337509192915050565b60405180606001604052806003906020820280368337509192915050565b634e487b7160e01b600052604160045260246000fd5b6040805190810167ffffffffffffffff811182821017156116f5576116f56116bc565b60405290565b604051601f8201601f1916810167ffffffffffffffff81118282101715611724576117246116bc565b604052919050565b600082601f83011261173d57600080fd5b6117456116d2565b80604084018581111561175757600080fd5b845b81811015611771578035845260209384019301611759565b509095945050505050565b6000806060838503121561178f57600080fd5b611799848461172c565b946040939093013593505050565b8051825260208082015181840160005b600a811015610db1578251825291830191908301906001016117b7565b6101c081016117e382866117a7565b83516101608301526020909301516101808201526101a00152919050565b600061016080838503121561181557600080fd5b61181d6116d2565b915082358252602084603f85011261183457600080fd5b604051610140810181811067ffffffffffffffff82111715611858576118586116bc565b60405291840191808684111561186d57600080fd5b8286015b848110156118885780358252908301908301611871565b5050908301525092915050565b6000604082840312156118a757600080fd5b6118af6116d2565b9050813581526020820135602082015292915050565b6000806101a083850312156118d957600080fd5b6118e38484611801565b91506118f3846101608501611895565b90509250929050565b6000806040838503121561190f57600080fd5b50508035926020909101359150565b6000808284036101a081121561193357600080fd5b61193d8585611801565b9250604061015f198201121561195257600080fd5b50610160830190509250929050565b60006080828403121561197357600080fd5b82601f83011261198257600080fd5b6040516080810181811067ffffffffffffffff821117156119a5576119a56116bc565b6040528060808401858111156119ba57600080fd5b845b818110156119d45780358352602092830192016119bc565b509195945050505050565b600060208083850312156119f257600080fd5b823567ffffffffffffffff80821115611a0a57600080fd5b818501915085601f830112611a1e57600080fd5b813581811115611a3057611a306116bc565b8060051b9150611a418483016116fb565b8181529183018401918481019088841115611a5b57600080fd5b938501935b83851015611a7957843582529385019390850190611a60565b98975050505050505050565b600060408284031215611a9757600080fd5b610df2838361172c565b60008060008060408587031215611ab757600080fd5b843567ffffffffffffffff80821115611acf57600080fd5b818701915087601f830112611ae357600080fd5b813581811115611af257600080fd5b88602061016083028501011115611b0857600080fd5b602092830196509450908601359080821115611b2357600080fd5b818701915087601f830112611b3757600080fd5b813581811115611b4657600080fd5b8860208260061b8501011115611b5b57600080fd5b95989497505060200194505050565b600060808284031215611b7c57600080fd5b6040516060810181811067ffffffffffffffff82111715611b9f57611b9f6116bc565b604052611bac8484611895565b815260408301356020820152606083013560408201528091505092915050565b600060208284031215611bde57600080fd5b5035919050565b600060a08284031215611bf757600080fd5b82601f830112611c0657600080fd5b60405160a0810181811067ffffffffffffffff82111715611c2957611c296116bc565b6040528060a08401858111156119ba57600080fd5b600060608284031215611c5057600080fd5b82601f830112611c5f57600080fd5b6040516060810181811067ffffffffffffffff82111715611c8257611c826116bc565b6040528060608401858111156119ba57600080fd5b6001600160a01b038116811461155957600080fd5b600060208284031215611cbe57600080fd5b8135610df281611c97565b634e487b7160e01b600052601160045260246000fd5b81810381811115610c2157610c21611cc9565b600060208284031215611d0457600080fd5b5051919050565b634e487b7160e01b600052603260045260246000fd5b600060208284031215611d3357600080fd5b81518015158114610df257600080fd5b6101608101610c2182846117a7565b600060408284031215611d6457600080fd5b610df28383611895565b6101a08101611d7d82856117a7565b823561016083015260208301356101808301529392505050565b60808101818360005b6004811015611dbf578151835260209283019290910190600101611da0565b50505092915050565b815160009082906020808601845b83811015611df257815185529382019390820190600101611dd6565b50929695505050505050565b6000825160005b81811015611e1f5760208186018101518583015201611e05565b506000920191825250919050565b600082611e4a57634e487b7160e01b600052601260045260246000fd5b500690565b60408101818360005b6002811015611dbf578151835260209283019290910190600101611e58565b60006101608284031215611e8a57600080fd5b610df28383611801565b60a08101818360005b6005811015611dbf578151835260209283019290910190600101611e9d565b600060208284031215611ece57600080fd5b8151610df281611c97565b60ff8281168282160390811115610c2157610c21611cc9565b60608101818360005b6003811015611dbf578151835260209283019290910190600101611efb565b6101a08101611f2982856117a7565b82516101608301526020830151610180830152610df256fea26469706673582212204172a8d3e191cc04ccb8487326d5d5ae88b2ad179ba1309bc37535f39e74d70464736f6c63430008130033a2646970667358221220a414e18bfd9200065cdf43ca3bbb3a9380145dccf618ea8178c37e7fcd462f3a64736f6c63430008130033",
  "libraries": {
    "PoseidonT3": "0xf2e06d2452A0d124AF0F6b8e63662131729E7F0A",
    "PoseidonT4": "0x6397684f16b6bCe2f47D9C5d51DbE45c8d570937",
    "PoseidonT5": "0x9dE016B7bbbE32cb5E18163530b87F810e76483C",
    "PoseidonT6": "0x08979464144853c9a97a98a624597C4698acda8e"
  },
  "devdoc": {
    "kind": "dev",
    "methods": {
      "deploy(uint256,(uint256,uint256),(uint8,uint8,uint8,uint8),(uint256,uint256),address,address,address)": {
        "params": {
          "_coordinatorPubKey": "The coordinator's public key",
          "_duration": "The duration of the poll",
          "_maci": "The MACI contract interface reference",
          "_maxValues": "The max values for the poll",
          "_pollOwner": "The owner of the poll",
          "_topupCredit": "The TopupCredit contract",
          "_treeDepths": "The depths of the merkle trees"
        },
        "returns": {
          "pollAddr": "The deployed Poll contract"
        }
      }
    },
    "title": "PollFactory",
    "version": 1
  },
  "userdoc": {
    "kind": "user",
    "methods": {
      "MESSAGE_DATA_LENGTH()": {
        "notice": "the length of a MACI message"
      },
      "constructor": {
        "notice": "The PollFactory constructor"
      },
      "deploy(uint256,(uint256,uint256),(uint8,uint8,uint8,uint8),(uint256,uint256),address,address,address)": {
        "notice": "Deploy a new Poll contract and AccQueue contract for messages."
      }
    },
    "notice": "A factory contract which deploys Poll contracts. It allows the MACI contract size to stay within the limit set by EIP-170.",
    "version": 1
  },
  "storageLayout": {
    "storage": [],
    "types": null
  }
}