{
  "address": "0xf2e06d2452A0d124AF0F6b8e63662131729E7F0A",
  "abi": [
    {
      "inputs": [
        {
          "internalType": "uint256[2]",
          "name": "input",
          "type": "uint256[2]"
        }
      ],
      "name": "poseidon",
      "outputs": [
        {
          "internalType": "uint256",
          "name": "",
          "type": "uint256"
        }
      ],
      "stateMutability": "pure",
      "type": "function"
    }
  ],
  "transactionHash": "0x741e4114dcc2a4737e315b73ad9dbf96b17f59e82ef2e73f61eb9318a3f2d975",
  "args": [],
  "numDeployments": 1,
  "solcInputHash": "05efae6947eda00ec18b9e488395ba38",
  "bytecode": "0x61011961003a600b82828239805160001a60731461002d57634e487b7160e01b600052600060045260246000fd5b30600052607381538281f3fe730000000000000000000000000000000000000000301460806040526004361060335760003560e01c806329a5f2f6146038575b600080fd5b60496043366004605b565b50600090565b60405190815260200160405180910390f35b600060408284031215606c57600080fd5b82601f830112607a57600080fd5b6040516040810181811067ffffffffffffffff8211171560aa57634e487b7160e01b600052604160045260246000fd5b806040525080604084018581111560c057600080fd5b845b8181101560d857803583526020928301920160c2565b50919594505050505056fea26469706673582212207d00b5e70e9fc611cc521fee3595db81a6ca3abd98fce9a06c8ecc7cf187233464736f6c63430008130033",
  "devdoc": {
    "kind": "dev",
    "methods": {},
    "version": 1
  },
  "userdoc": {
    "kind": "user",
    "methods": {},
    "notice": "A library which provides functions for computing Pedersen hashes.",
    "version": 1
  },
  "storageLayout": {
    "storage": [],
    "types": null
  }
}