{
  "address": "0x9dE016B7bbbE32cb5E18163530b87F810e76483C",
  "abi": [
    {
      "inputs": [
        {
          "internalType": "uint256[4]",
          "name": "input",
          "type": "uint256[4]"
        }
      ],
      "name": "poseidon",
      "outputs": [
        {
          "internalType": "uint256",
          "name": "",
          "type": "uint256"
        }
      ],
      "stateMutability": "pure",
      "type": "function"
    }
  ],
  "transactionHash": "0x3c7c0a6ae40abd5c7663b9f38ef61f8a4eade23ad8809a4d40f789fa8fea9570",
  "args": [],
  "numDeployments": 1,
  "solcInputHash": "05efae6947eda00ec18b9e488395ba38",
  "bytecode": "0x61011761003a600b82828239805160001a60731461002d57634e487b7160e01b600052600060045260246000fd5b30600052607381538281f3fe730000000000000000000000000000000000000000301460806040526004361060335760003560e01c8063248f6677146038575b600080fd5b60496043366004605b565b50600090565b60405190815260200160405180910390f35b600060808284031215606c57600080fd5b82601f830112607a57600080fd5b6040516080810181811067ffffffffffffffff8211171560aa57634e487b7160e01b600052604160045260246000fd5b60405280608084018581111560be57600080fd5b845b8181101560d657803583526020928301920160c0565b50919594505050505056fea264697066735822122071f1a603eeed620405cf477cf69f6c750f4703bf280ac26c5f27336ddf1eb46664736f6c63430008130033",
  "devdoc": {
    "kind": "dev",
    "methods": {},
    "version": 1
  },
  "userdoc": {
    "kind": "user",
    "methods": {},
    "notice": "A library which provides functions for computing Pedersen hashes.",
    "version": 1
  },
  "storageLayout": {
    "storage": [],
    "types": null
  }
}