{
  "address": "0x08979464144853c9a97a98a624597C4698acda8e",
  "abi": [
    {
      "inputs": [
        {
          "internalType": "uint256[5]",
          "name": "input",
          "type": "uint256[5]"
        }
      ],
      "name": "poseidon",
      "outputs": [
        {
          "internalType": "uint256",
          "name": "",
          "type": "uint256"
        }
      ],
      "stateMutability": "pure",
      "type": "function"
    }
  ],
  "transactionHash": "0x1aaad068cd1c1843a5e5051f3333dd71cb961703593fb0076450b05248768d8a",
  "args": [],
  "numDeployments": 1,
  "solcInputHash": "05efae6947eda00ec18b9e488395ba38",
  "bytecode": "0x61011761003a600b82828239805160001a60731461002d57634e487b7160e01b600052600060045260246000fd5b30600052607381538281f3fe730000000000000000000000000000000000000000301460806040526004361060335760003560e01c80634937a258146038575b600080fd5b60496043366004605b565b50600090565b60405190815260200160405180910390f35b600060a08284031215606c57600080fd5b82601f830112607a57600080fd5b60405160a0810181811067ffffffffffffffff8211171560aa57634e487b7160e01b600052604160045260246000fd5b6040528060a084018581111560be57600080fd5b845b8181101560d657803583526020928301920160c0565b50919594505050505056fea26469706673582212200ebadd04099c9493ce5991cf2b27f39f3b1008d9e2c2af7d9186b33e318d36eb64736f6c63430008130033",
  "devdoc": {
    "kind": "dev",
    "methods": {},
    "version": 1
  },
  "userdoc": {
    "kind": "user",
    "methods": {},
    "notice": "A library which provides functions for computing Pedersen hashes.",
    "version": 1
  },
  "storageLayout": {
    "storage": [],
    "types": null
  }
}