{
  "address": "0x6397684f16b6bCe2f47D9C5d51DbE45c8d570937",
  "abi": [
    {
      "inputs": [
        {
          "internalType": "uint256[3]",
          "name": "input",
          "type": "uint256[3]"
        }
      ],
      "name": "poseidon",
      "outputs": [
        {
          "internalType": "uint256",
          "name": "",
          "type": "uint256"
        }
      ],
      "stateMutability": "pure",
      "type": "function"
    }
  ],
  "transactionHash": "0x351db9bddd20f765fa4e46640ef39db904043461048be481e1d7d7d463126609",
  "args": [],
  "numDeployments": 1,
  "solcInputHash": "05efae6947eda00ec18b9e488395ba38",
  "bytecode": "0x61011761003a600b82828239805160001a60731461002d57634e487b7160e01b600052600060045260246000fd5b30600052607381538281f3fe730000000000000000000000000000000000000000301460806040526004361060335760003560e01c806325cc70e8146038575b600080fd5b60496043366004605b565b50600090565b60405190815260200160405180910390f35b600060608284031215606c57600080fd5b82601f830112607a57600080fd5b6040516060810181811067ffffffffffffffff8211171560aa57634e487b7160e01b600052604160045260246000fd5b60405280606084018581111560be57600080fd5b845b8181101560d657803583526020928301920160c0565b50919594505050505056fea26469706673582212204968cf842e291f3bb9b2f37550da5ba6b1d42f9e932ceb4512cd605c0f57841664736f6c63430008130033",
  "devdoc": {
    "kind": "dev",
    "methods": {},
    "version": 1
  },
  "userdoc": {
    "kind": "user",
    "methods": {},
    "notice": "A library which provides functions for computing Pedersen hashes.",
    "version": 1
  },
  "storageLayout": {
    "storage": [],
    "types": null
  }
}