{
  "address": "0x9BE9efbd84d9632F6461aFf518eBdaC4cC968c60",
  "abi": [
    {
      "inputs": [],
      "name": "InvalidInputVal",
      "type": "error"
    },
    {
      "inputs": [],
      "name": "InvalidProofQ",
      "type": "error"
    },
    {
      "inputs": [],
      "name": "PairingAddFailed",
      "type": "error"
    },
    {
      "inputs": [],
      "name": "PairingMulFailed",
      "type": "error"
    },
    {
      "inputs": [],
      "name": "PairingOpcodeFailed",
      "type": "error"
    },
    {
      "inputs": [],
      "name": "PRIME_Q",
      "outputs": [
        {
          "internalType": "uint256",
          "name": "",
          "type": "uint256"
        }
      ],
      "stateMutability": "view",
      "type": "function"
    },
    {
      "inputs": [
        {
          "internalType": "uint256[8]",
          "name": "_proof",
          "type": "uint256[8]"
        },
        {
          "components": [
            {
              "components": [
                {
                  "internalType": "uint256",
                  "name": "x",
                  "type": "uint256"
                },
                {
                  "internalType": "uint256",
                  "name": "y",
                  "type": "uint256"
                }
              ],
              "internalType": "struct Pairing.G1Point",
              "name": "alpha1",
              "type": "tuple"
            },
            {
              "components": [
                {
                  "internalType": "uint256[2]",
                  "name": "x",
                  "type": "uint256[2]"
                },
                {
                  "internalType": "uint256[2]",
                  "name": "y",
                  "type": "uint256[2]"
                }
              ],
              "internalType": "struct Pairing.G2Point",
              "name": "beta2",
              "type": "tuple"
            },
            {
              "components": [
                {
                  "internalType": "uint256[2]",
                  "name": "x",
                  "type": "uint256[2]"
                },
                {
                  "internalType": "uint256[2]",
                  "name": "y",
                  "type": "uint256[2]"
                }
              ],
              "internalType": "struct Pairing.G2Point",
              "name": "gamma2",
              "type": "tuple"
            },
            {
              "components": [
                {
                  "internalType": "uint256[2]",
                  "name": "x",
                  "type": "uint256[2]"
                },
                {
                  "internalType": "uint256[2]",
                  "name": "y",
                  "type": "uint256[2]"
                }
              ],
              "internalType": "struct Pairing.G2Point",
              "name": "delta2",
              "type": "tuple"
            },
            {
              "components": [
                {
                  "internalType": "uint256",
                  "name": "x",
                  "type": "uint256"
                },
                {
                  "internalType": "uint256",
                  "name": "y",
                  "type": "uint256"
                }
              ],
              "internalType": "struct Pairing.G1Point[]",
              "name": "ic",
              "type": "tuple[]"
            }
          ],
          "internalType": "struct SnarkCommon.VerifyingKey",
          "name": "vk",
          "type": "tuple"
        },
        {
          "internalType": "uint256",
          "name": "input",
          "type": "uint256"
        }
      ],
      "name": "verify",
      "outputs": [
        {
          "internalType": "bool",
          "name": "isValid",
          "type": "bool"
        }
      ],
      "stateMutability": "view",
      "type": "function"
    }
  ],
  "transactionHash": "0x05767307a09016f5c403f30bdbd0d25462d9b8d910484654bfd610dd142c0fde",
  "args": [],
  "numDeployments": 1,
  "solcInputHash": "05efae6947eda00ec18b9e488395ba38",
  "bytecode": "0x608060405234801561001057600080fd5b50610bdb806100206000396000f3fe608060405234801561001057600080fd5b50600436106100365760003560e01c806322b72c941461003b5780638d53290814610063575b600080fd5b61004e61004936600461097e565b610086565b60405190151581526020015b60405180910390f35b610078600080516020610b8683398151915281565b60405190815260200161005a565b60006100906106e5565b6040805180820182528651815260208088015181830152908352815160808082018452888401518285019081526060808b01519084015282528351808501855290890151815260a08901518184015281830152838201528151808301835260c0880151815260e0880151918101919091529082015280515161011190610284565b80516020015161012090610284565b6020810151516101379060005b6020020151610284565b602080820151015161014a90600061012d565b60208101515161015b90600161012d565b602080820151015161016e90600161012d565b60408101515161017d90610284565b61018e816040015160200151610284565b7f30644e72e131a029b85045b68181585d2833e84879b9709143e1f593f000000183106101ce5760405163076be92360e31b815260040160405180910390fd5b60006040518060400160405280600081526020016000815250905061021a81610215876080015160018151811061020757610207610adb565b6020026020010151876102b5565b610327565b905061024481866080015160008151811061023757610237610adb565b6020026020010151610327565b905061027a610256836000015161039f565b836020015187600001518860200151858a6040015188604001518c60600151610435565b9695505050505050565b600080516020610b8683398151915281106102b2576040516308f69c9160e01b815260040160405180910390fd5b50565b60408051808201909152600080825260208201526102d1610736565b835181526020808501519082015260408101839052600060608360808460076107d05a03fa9050808061030057fe5b508061031f576040516372ffac5560e11b815260040160405180910390fd5b505092915050565b6040805180820190915260008082526020820152610343610754565b8351815260208085015181830152835160408301528301516060808301919091526000908360c08460066107d05a03fa9050808061037d57fe5b508061031f5760405160016203c15f60e01b0319815260040160405180910390fd5b604080518082019091526000808252602082015281511580156103c457506020820151155b156103e2575050604080518082019091526000808252602082015290565b604051806040016040528083600001518152602001600080516020610b8683398151915284602001516104159190610af1565b61042d90600080516020610b86833981519152610b29565b905292915050565b60408051608080820183528a825260208083018a90528284018890526060808401879052845192830185528b83528282018a9052828501889052820185905283516018808252610320820190955260009491859190839082016103008036833701905050905060005b60048110156106895760006104b4826006610b42565b90508582600481106104c8576104c8610adb565b602002015151836104da836000610b59565b815181106104ea576104ea610adb565b60200260200101818152505085826004811061050857610508610adb565b6020020151602001518382600161051f9190610b59565b8151811061052f5761052f610adb565b60200260200101818152505084826004811061054d5761054d610adb565b6020020151515183610560836002610b59565b8151811061057057610570610adb565b60200260200101818152505084826004811061058e5761058e610adb565b60200201515160016020020151836105a7836003610b59565b815181106105b7576105b7610adb565b6020026020010181815250508482600481106105d5576105d5610adb565b6020020151602001516000600281106105f0576105f0610adb565b602002015183610601836004610b59565b8151811061061157610611610adb565b60200260200101818152505084826004811061062f5761062f610adb565b60200201516020015160016002811061064a5761064a610adb565b60200201518361065b836005610b59565b8151811061066b5761066b610adb565b6020908102919091010152508061068181610b6c565b91505061049e565b50610692610772565b6000602082602086026020860160086107d05a03fa905080806106b157fe5b50806106d057604051630143d56760e11b815260040160405180910390fd5b505115159d9c50505050505050505050505050565b6040805160a08101909152600060608201818152608083019190915281526020810161070f610790565b8152602001610731604051806040016040528060008152602001600081525090565b905290565b60405180606001604052806003906020820280368337509192915050565b60405180608001604052806004906020820280368337509192915050565b60405180602001604052806001906020820280368337509192915050565b60405180604001604052806107a36107ac565b81526020016107315b60405180604001604052806002906020820280368337509192915050565b634e487b7160e01b600052604160045260246000fd5b6040805190810167ffffffffffffffff81118282101715610803576108036107ca565b60405290565b60405160a0810167ffffffffffffffff81118282101715610803576108036107ca565b604051601f8201601f1916810167ffffffffffffffff81118282101715610855576108556107ca565b604052919050565b600060405161010080820182811067ffffffffffffffff82111715610884576108846107ca565b604052909150819083018481111561089b57600080fd5b835b818110156108b557803583526020928301920161089d565b50505092915050565b6000604082840312156108d057600080fd5b6108d86107e0565b9050813581526020820135602082015292915050565b600082601f8301126108ff57600080fd5b6109076107e0565b80604084018581111561091957600080fd5b845b8181101561093357803584526020938401930161091b565b509095945050505050565b60006080828403121561095057600080fd5b6109586107e0565b905061096483836108ee565b815261097383604084016108ee565b602082015292915050565b600080600061014080858703121561099557600080fd5b85601f8601126109a457600080fd5b6109ae868661085d565b935061010085013567ffffffffffffffff808211156109cc57600080fd5b908601906101e082890312156109e157600080fd5b6109e9610809565b6109f389846108be565b81526040610a038a82860161093e565b60208181850152610a178c60c0880161093e565b83850152610a278c88880161093e565b60608501526101c0860135965084871115610a4157600080fd5b86860196508b601f880112610a5557600080fd5b8635955084861115610a6957610a696107ca565b610a77818760051b0161082c565b86815260069690961b8701810195818101955091508b861115610a9957600080fd5b958601955b85871015610abf57610ab08c886108be565b85529582019593840193610a9e565b5060808301525095989597505050506101209390930135925050565b634e487b7160e01b600052603260045260246000fd5b600082610b0e57634e487b7160e01b600052601260045260246000fd5b500690565b634e487b7160e01b600052601160045260246000fd5b81810381811115610b3c57610b3c610b13565b92915050565b8082028115828204841417610b3c57610b3c610b13565b80820180821115610b3c57610b3c610b13565b600060018201610b7e57610b7e610b13565b506001019056fe30644e72e131a029b85045b68181585d97816a916871ca8d3c208c16d87cfd47a2646970667358221220fe177ab51a698fbcc599c7abbe3558df1085c3ee2af83d62e291c7e2c4df91f364736f6c63430008130033",
  "devdoc": {
    "kind": "dev",
    "methods": {
      "verify(uint256[8],((uint256,uint256),(uint256[2],uint256[2]),(uint256[2],uint256[2]),(uint256[2],uint256[2]),(uint256,uint256)[]),uint256)": {
        "params": {
          "_proof": "The proof",
          "input": "The public inputs to the circuit",
          "vk": "The verifying key"
        },
        "returns": {
          "isValid": "Whether the proof is valid given the verifying key and public          input. Note that this function only supports one public input.          Refer to the Semaphore source code for a verifier that supports          multiple public inputs."
        }
      }
    },
    "title": "Verifier",
    "version": 1
  },
  "userdoc": {
    "errors": {
      "InvalidProofQ()": [
        {
          "notice": "custom errors"
        }
      ],
      "PairingAddFailed()": [
        {
          "notice": "custom errors"
        }
      ]
    },
    "kind": "user",
    "methods": {
      "verify(uint256[8],((uint256,uint256),(uint256[2],uint256[2]),(uint256[2],uint256[2]),(uint256[2],uint256[2]),(uint256,uint256)[]),uint256)": {
        "notice": "Verify a zk-SNARK proof"
      }
    },
    "notice": "a Groth16 verifier contract",
    "version": 1
  },
  "storageLayout": {
    "storage": [],
    "types": null
  }
}